:400000000040002011000000310700003107000010B500F095FBC04610B51222144B1A6001F0C4F8302001F077F8124A124B1A600024124B1C60124B124A1A6088218901CF
:40004000114A1160114A1A6080221206104B1A60104A114B1A604122104B1A601049072000F090FF072000F077FF0E4B1C6010BD300010400600008004010B400003014020
:400080000000014040FF00800403014041FF008008010B400100040000010B4014010140991200000C020B4010B572B600240FE024486200131959000B00411889881A5AFD
:4000C000C31858880004104300F02CFB0134E4B2012CEDD9802212051B4B1A60EE2212021A4B1A60AA221205194B1A609922194B1A6099231B04184A1360184A1360184A3C
:40010000117806230B43DBB213708022D202154B1A60D8221201144B1A604022134B1A60C4225203124B1A600223124A13603121114A1160114A1360FFF76EFF00F0E2FA1E
:4001400010BDC046BC1600000000024000030240000402400007024000500F4030500F4000700F400800044008030440000404400804044000070440080704401807044063
:4001800010B5064C2378002B07D1054B002B02D0044800E000BF0123237010BD48010020000000000C160000084B10B5002B03D00749084800E000BF07480368002B00D138
:4001C00010BD064B002BFBD09847F9E7000000004C0100200C160000C00000200000000070B504001D00012000F014F820800423A370E01CF52100F01BF82418E57070BDAD
:4002000010B503300822042100F020F810BDC0468079704780028023DB0018408901403B194001433F200240114308007047C04610B50400017000F03FF9607000F036F9E7
:40024000A070032010BDC0460079704770B50600002A09DD002909DB521A0132042A00DD0422002A05DC03E0042202E0042200E000220024002007E06318F55C531E1B1B74
:40028000DB009D4028430134A242F5DC70BDC04670B562B600F0AAFD0121022000F09AF80022414B1A60414800F016FE3E4B1B68012B11D0022B1DD0002BF7D13C4C0533C9
:4002C000012205212000FFF78BFF200000F0CEF80222354B1A60E9E7354C0623012205212000FFF77DFF200000F0C0F802222E4B1A60DBE72F4800F0DFF90028D6D12E48A7
:4003000000F0EAFD2B48FFF783FF062812D12B4800F0E2FD2748FFF773FF0A22284901F026F900F0D9FD274800F0D6FD00221E4B1A60BBE71F48FFF76BFF052812D1224844
:4003400000F0CAFD1B48FFF75BFF0A221C4901F00EF900F0C1FD1D4800F0BEFD0122124B1A60A3E71A4800F0B7FD124E3000FFF74FFF134D0A22290001F0F9F800F0ACFD3E
:40038000124C200000F0A8FD3000FFF75DFF0A22290001F0ECF800F09FFD200000F09CFD200000F099FD81E7C8010020301600009C010020CC010020681600007816000056
:4003C000A801002060160000841600009016000094160000F8B504000D0000F033FC0F2020401A4E30603F212940194B1960194C00252570800108434005E060164FA760EE
:40040000164B1B686360200000F0E8FA01232370E560A760124B1B686360200000F0DEFA022323703368DB06FC22D2041343E360A7600C4B1B686360200000F0CFFA00F067
:40044000C9F909491C2000F09DFDF8BDD8010020EC010020DC010020FFFF1F80A0002F40C0002F40E0002F405D05000010B586B0002815D0038802AC0293002323716371FD
:400480008278A271E3716B460593C11C0822684601F071F8200000F0EBFB002802D102E0022000E0012006B010BDC046014B18787047C046EC010020014B18787047C046C5
:4004C000D8010020104B1878C0B2002819D15A78D2B29B78DBB29A4205D20B4A93785078181AC0B20EE0084B5A78D2B29B78DBB29A4207D9044A93785078181A1030C0B227
:4005000000E010207047C04664010020124A93780133DBB293709378DBB20F2B02D900220D4B9A700C4B1B78002B0BD00A4A53780133DBB253705378DBB20F2B02D90022EB
:40054000054B5A70044A537891785B1A59424B41DBB213707047C0466401002070B5464800F0BAFC80225201444B1A60444B1B68DA0706D49A0706D45A0706D41B0706D47B
:4005800006E0002404E0012402E0022400E003243C4B9A78D2B264013B4B9C4664442368DB0202D46168490D02E06168C90889B2364B500082189000C152324A9178C9B265
:4005C0002068000C0F2528404D0069188D005D19A8709178C9B2A5682D0E4800411888001818C5709178C9B2A068000CC0B24D0069188D005D1928719178C9B2A068000A7E
:40060000C0B24D0069188D005D1968719178C9B2A568EDB2480041188800181885719178C9B2E5682D0E4800411888001818C5719178C9B2E068000CC0B24D0069188D00DF
:400640005D1928729178C9B2E068000AC0B24D0069188D005D1968729278D2B2E068C0B251008A1891005B189872FFF74FFF226801231343236070BDA416000000002F400D
:4006800008002F4064010020A0002F40F001002010B5FFF717FF00280BD0064A53780133DBB253705378DBB20F2B02D90022014B5A7010BD6401002010B582B0041E17D0B4
:4006C000FFF700FF6B46D87107331B78002B11D00A4B5B78DBB25A00D3189900084B59180C22200000F047FFFFF7D2FF002002E0022000E0022002B010BDC0466401002060
:40070000F00100200323044A1360044A13600022034B1A607047C0463000304030003140000E3F4010B50A00002100F02DFF10BD10B500F0D9FE03680C2B00D1FEE7FEE7E9
:4007400070B50F4E0F4D13E029686B68AC68002202E001C901C30432A242FAD1E868002202E0002102C304328242FAD11035013E002EE9D100F0BEFEFFF78AFDFEE7C0463A
:4007800001000000A418000010B50E4A136801218B43136000230AE0032B03D89A000A49505800E009489900094A885001332F2BF2D9FFF779FC034A116801230B43136072
:4007C00010BDC04600001040000000003107000000000020054B1A6801210A431A601B68194201D1012000E00020704704002F4010B50E4A0E4B1A60FFF7ECFF1C2000F0CB
:40080000ABFB0C4A116801230B43136090235B0100E0013B002B03D0064A1268D207F8D5002B01D1012000E0002010BD0118000000002F4010002F4003B2002B0DDB094AB8
:400840001168094B0B400004034313601268074B1340984203D0012002E0022000E000207047C04614002F40FFFF00800000FF7F002809D10C4B19680C4A0A401A601B68FF
:40088000DB040CD501300DE0074B1A68802149010A431A601B680B4203D1012002E0002000E000207047C04614002F40FFEFFFFF70B5841EE4B20D2C35D88C1EE4B2052CCD
:4008C00003D9002B31D1012931D1032A31D8904231D3914231D31C4D2C68240AE4B20F26B44320432E68194C3440000204432C602C686040F0242401204220D1002B00D091
:4009000002234901C9B29200D2B2114319430E4A1368EE2083430B4313601368034099420FD0ED380EE002200CE002200AE0022008E0022006E0022004E0022002E00120BD
:4009400000E0002070BDC04614002F40FFF0FFFF002809D10B4B1A6810218A431A601B6819420BD001300CE0064B1A6810210A431A601B68194203D1012002E0002000E02C
:400980000020704714002F40002809D10B4B1A6801218A431A601B6819420BD001300CE0064B1A6801210A431A601B68194203D1012002E0002000E00020704714002F40F9
:4009C000054B18601B681B041B0C984201D0012000E000207047C04604002F4010B503785B01204A944663441F4A41680A431A6003785B01634419681C4A11401C4A446842
:400A00002240914224D182681A6103785B0163441A6981688A421DD1C2685A6103785B0163445A69C1688A4216D1012252429A6103785B0163449A6901320FD10022DA61DE
:400A400003785B016344DB69002B09D0012008E0012006E0012004E0012002E0012000E0002010BDA0002F40800080007F007F007FFF7FFF10B503781B01104A944663446A
:400A80000F4A41680A431A6003781B01634419680C4A11400C4A4468224091420AD182685A6003781B0163445A6883689A4203D0012002E0012000E0002010BD20002F4037
:400AC00008008000F7007F00F7FF7FFF70B500240AE063001B199800104B1818FFF7CAFF002805D10134E4B2072CF2D9002500E00125002D0BD00FE0230108486030C01813
:400B0000FFF76CFF002806D10134E4B200E000240F2CF1D900E00125280070BDC8160000002809D10C4B19680C4A0A401A601B689B040CD501300DE0074B1A688021890134
:400B40000A431A601B680B4203D1012002E0002000E000207047C04614002F40FFDFFFFF10B580221206334B1A60334A136801218B431360F0231B0200E0013B002B03D0AF
:400B80002D4A1268D207F8D4002B49D01C2000F0EDF92A491C2000F0F5F903211C2000F003FA1720FFF748FE002819D1FFF760FE002817D1FFF7B4FF002815D10023012289
:400BC00001210C30FFF774FE00280FD1FFF7C0FE00280DD1FFF7D8FE00280BD001230AE0012308E0012306E0012304E0012302E0012300E00023002B14D1FFF767FF0028B1
:400C000012D10F48FFF7DCFE00280FD10A4B1A6807218A431A601B68194209D0013008E0012006E0012004E0012002E0012000E0002010BD00042F4010002F406D0C000024
:400C40000118000010B5084B1B78002B02D1FFF787FF00E00020002804D10122024B1A70FFF7C6FD10BDC046680100207047C046F8B54F464646C0B4040001200023984605
:400C800091E04C4B1B6832041A427AD12379002B01D1002701E08027BF036379002B07D12B01454A94466344226852055A6009E080235B031F432B013F4A94466344226800
:400CC000D2005A60A379072B03D81B041F43B94603E080231B031F43B946E379002B03D004234A461A43914600232AE0032B13D92801324A94466044026894465907CA1A83
:400D0000D1003831FF228A4067469743E268D25C8A403A43026012E02801274A94466044826894465907CA1AD1001831FF228A4067469743E268D25C8A403A438260013373
:400D4000DBB2A279934201D2072BCFD91C2000F00DF92B01184A94466344194A4F4617431F60227A002A04D0196803220A431A6003E0196801220A431A601C2000F0ECF8D2
:400D800000207600F6B2002807D00135EDB201E001260025072D00D873E7002806D043460133DBB298464346022BF1D90CBC90469946F8BD08002F4020002F402C002F4015
:400DC0000800800010B500F075F810BD10B500F01DF810BD10B5044A1368802109060B431360FFF7EFFF10BD0000274010B5064B1B78002B04D1FFF7E9FF0122024B1A704D
:400E0000FFF7E8FF10BDC0466A010020154A164B1A600023154A13601549164A1160164A16490A6007201649086016490B6006381549086015490A60154A13600421154A16
:400E40001160154A1360154A1360154A1360154A1360154A1360154A13601268144B1A807047C0460B000002000027404000274001000A004800274007000080000327401F
:400E8000040327401003274044002740000227400402274050002740880E2740C80E2740480F2740080F2740C80F2740880F27406C01002005490B68F0229343603A13433A
:400EC0000B60034B1A88034B1A607047000702406C010020880F274070B50500002402E000F03EFA0134285D0028F9D170BDC04600230AE00D4A12683F210A400C49C95C0B
:400F00008A4201D1033303E001332D2BF2D9032308490868084A02400A60084A944663441B78DBB2064A13607047C0462CFF0B402818000000002240FFFFFFBFCDF1FF0FAB
:400F400028FF0B40034B18688023DB05184000D001207047000022401F2318401E3B8340014A13607047C04600E100E01F2318401E3B8340014A13607047C04680E100E0E8
:400F800001BE704770B504000D001F2802D90020FFF7F6FF1034A40080239B059C4664442068256070BDC04670B504000E00032902D90020FFF7E4FF1F2C02D90020FFF7F0
:400FC000DFFF03252540ED00063500F0C2F9A408A400074B9C46644421680323AB4099430B003100A9401943216000F0B6F970BD00E400E010B5040006E0084B586800F0CD
:401000009FF9074B9C46644480231B029C42F4D8024B9868604300F093F910BDC40000200080FFFF70B582B000F0E0F800285DD000F08FF9050000230AE02D4A12683F21E8
:401040000A402C49C95C8A4201D1033303E001332D2BF2D903230021274A1160274A1268D20606D1254802681F318A4313390A430260234C2168234A1140234A5A43802369
:40108000DB019C466244D20B013A5205520D0B001343A0225203134323601C4B1B680193302000F06BF91A4A13688021C9050B4313602668174B1E40002407E00120FFF70C
:4010C00099FF1034A30533430D4A1360EE2CF5D90120FFF78FFFFF239B051E43084B1E60019A0A4B1A60280000F037F902B070BD2CFF0B402818000028FF0B4034FF0B4074
:401100000800224000F800C040420F003000104000002240FFFF3FC030B587B0040000F018F90500FFF70EFF002803D0FFF7E0FE012100E00021104B1B6800930F4B1B68B4
:401140000193033C0E4B1B5D02930E4B1B68039304AA0D4B04936B4605930C4B1A600C480C4A10601B68012901D1FFF75BFF280000F0F3F807B030BD08010B4000010B40DD
:401180002818000030001040B6EA0000080010401700008004001040034B1868C0231B02184000D00120704700010B4010B50D4B1A6801218A431A601A68022082431A6087
:4011C000094A10683024A043203C204310601068093CA043014311601A68802109060A431A6010BD00002240000F2240034B1B68002B01DA012000E00020704700002240BF
:4012000010B500F0A6F8044A1368C02109020B43136000F0A2F810BD00010B4010B500F098F808490A68084B1A408024E40122430A600A6813408022120213430B6000F009
:401240008CF810BD00010B40FF3FFFFF70B5050000F07FF80400FFF79FFF002803D0FFF7DDFF012100E0002108482840084A1568084B2B40184310601368012901D1FFF7FF
:40128000BFFF200000F069F870BDC0460404040010020B40FBFBFBFF10B5244B1B685B0715D5234B5B685B070ED5224B596A042001401F4C62688A4362605A6A82435A625C
:4012C0009B69002B00D098470420FFF7BFFF174B1B685B0518D5164B5B685B0510D5154B596A8022D2001140114842688A434260596A114A0A405A62DB69002B00D0984701
:401300008020C000FFF7A2FF084B1B685B030CD5074B5B685B0304D5064B1B6A002B00D098478020C002FFF791FF10BD10020B40D800002070010020FFFBFFFF0000000012
:401340000230800803D00138FDD1C046C046C0467047EFF3108072B6704780F310887047044B1B681F221340082BF9D0024B18607047C046080227404002274070B50400D6
:40138000FFF7E7FF0500102C05D8104A136803218B43136016E0202C07D80C490B6803229343023A13430B600CE0302C07D807490B6803229343013A13430B6002E0002035
:4013C000FFF7DEFD2800FFF7C8FF70BD30001040002243088B4274D303098B425FD3030A8B4244D3030B8B4228D3030C8B420DD3FF22090212BA030C8B4202D312120902A3
:4014000065D0030B8B4219D300E0090AC30B8B4201D3CB03C01A5241830B8B4201D38B03C01A5241430B8B4201D34B03C01A5241030B8B4201D30B03C01A5241C30A8B427B
:4014400001D3CB02C01A5241830A8B4201D38B02C01A5241430A8B4201D34B02C01A5241030A8B4201D30B02C01A5241CDD2C3098B4201D3CB01C01A524183098B4201D3F4
:401480008B01C01A524143098B4201D34B01C01A524103098B4201D30B01C01A5241C3088B4201D3CB00C01A524183088B4201D38B00C01A524143088B4201D34B00C01A8E
:4014C0005241411A00D20146524110467047FFE701B5002000F006F802BDC0460029F7D076E770477047C046014B18687047C046400100200E4B70B500251E000D4CE41A13
:40150000A410A54204D0AB00F35898470135F8E700F0B6F9084B00251E00084CE41AA410A54204D0AB00F35898470135F8E770BD8C1800008C1800008C18000094180000AD
:40154000931E10B50C00222B02D9002008700DE00A2A06D1002804DA2D2340420B70012100E00021611800F017F8200010BD10B5FFF7E6FF10BD002310B59A4203D0CC5C2A
:40158000C4540133F9E710BD03008218934202D019700133FAE77047F0B58FB0170006000C002522184904A8FFF7E5FF0020BB1E0500222B01D9207023E06B1C0293E3188F
:4015C00001933000013B39000393FFF787FF04AB5B5C039A300013703900FFF7F9FE061E01D0029DE9E7019B187023001A1B954206DD1A78615D197062550133013DF5E74C
:4016000020000FB0F0BDC04658180000000000004279746525642025782020200000000049443A25782025782025780D0A0000000D0A2A2A2A54455354494E472043414ED4
:4016400020434F4D4D554E49434154494F4E205749544820494D5520424F4152442A2A2A0D0A0D0A000000005061636B657420466F756E64210D0A004C4F4E4749545544C7
:40168000453A20004C415449545544453A2000000D0A0000424144205041434B45540D0A00000000496E74657275707420547269676765726564210D0A00000000300F4039
:4016C000000400400F400004000000000800880000000000010000000800880000000000020000000800880000000000030000000800880000000000040000000800880079
:401700000000000005000000080088000000000006000000080088000000000007000000080088000000000000000000A8008000FFFFFFFF0000000001000000A80080009A
:40174000FFFFFFFF0000000002000000A8008000FFFFFFFF00000000030000000000000000000000000000000400000000000000000000000000000005000000000000003B
:40178000000000000000000006000000000000000000000000000000070000000000000000000000000000000800000000000000000000000000000009000000000000000B
:4017C00000000000000000000A0000000000000000000000000000000B0000000000000000000000000000000C0000000000000000000000000000000D00000000000000BB
:4018000000000000000000000E0000000000000000000000000000000F000000000000000000000000000000030405060708090A0B0C0E0F101112131415161718191B1C1F
:401840001D1E1F2021222325262728292A2B2E2F3031323334354300303132333435363738396162636465666768696A6B6C6D6E6F707172737475767778797A0000000075
:40188000F8B5C046F8BC08BC9E467047A901000089070000F8B5C046F8BC08BC9E46704781010000B8180000C000002088000000680100000000000000000000010000003E
:4018C0000000C05D80BB000030000000006CDC02F00000000404040000000000000000000000000000000000000000000000000000000000000000005618000000000000AC
:401900000000000000000000000000000000000000000000000000000000000000000000000000000000000000000000000000000000000000000000E000002000000000A7
:401940000000000000000000000000000000000000000000000000000000000000000000000000000000000000000000000000000000000000000000000000000000000067
:401980000000000000000000000000000000000000000000000000000000000000000000000000000000000000000000000000000000000000000000000000000000000027
:4019C00000000000000000000000000000000000000000000000000000000000000000000000000000000000000000000000000000000000000000000000000000000000E7
:401A000000000000000000000000000000000000000000000000000000000000000000000000000000000000000000000000000000000000000000000000000000000000A6
:020000040001F9
:0200000490303A
:0200000077BEC9
:0200000490402A
:4000000000000000000000000000000000000000000000000000000000000000000000000000000000000000000000000000000000000000000000000000000000000000C0
:400040000000000000000000000000000000000000000000000000000000000000000000000000000000000000000000000000000000000000000000000000000000000080
:0200000490501A
:0C0000000002112D11A100011134895FD4
:0200000490600A
:0100000001FE
:00000001FF