:400000000080002011000000F12F0000F12F000010B503F00DF8C04670B51222204B1A6003F034FB1F4804F09BFB302003F046FA1D4A1E4B1A601E4C8025ED052560002246
:400040001C4B1A601C4B1D491960882080011C4908601C491960E82040011B4908601B4919601B490A601B4A1A60802212061A4B1A608022D202194B1A604322184B1A60B7
:40008000013A184B1A60013A174B1A601749082003F038F9082003F01FF9256070BDC04630001040001BB7000600008004010B400C020B40000301400000014040FF0080B5
:4000C0000C03014043FF00800803014042FF00800403014041FF008008010B4000010B4014010140100101400C0101407937000010B572B600240FE0314862001319590033
:400100000B00411889881A5AC31858880004104302F068FF0134E4B2012CEDD9AA22294B1A609923284A1360EE210902274A1160EE21274A1160274A136099231B04264A36
:400140001360264A1360264A1360264A1360264A1360264A1360264A117806230B43DBB213700223234A1360312223490A600F20224908602248234908608220224908603A
:4001800022482349086023490B60D8200001224908602A202149086021482249086003202149086021302149086021490B6021490A60214A1360FFF72FFF02F003FF10BD82
:4001C000F8960000000002400002024000030240000502400007024000500F4010500F4020500F4040500F4050500F4070500F4000700F4000000440080004400001044098
:400200009204000008010440000204403100C000080204401802044008030440000404403086010008040440000504400805044000070440080704401807044010B5064CA8
:400240002378002B07D1054B002B02D0044800E000BF0123237010BD88010020000000009C940000084B10B5002B03D00749084800E000BF07480368002B00D110BD064B22
:40028000002BFBD09847F9E7000000008C0100209C940000C00000200000000070B504001E00012000F012F820800823A370E51CF621280000F018F82418E670421C0499BF
:4002C000280000F01FF870BD8079704780028023DB0018408901403B194001433F200240114308007047C04610B50400017000F007FC607000F0FEFBA070032010BDC04652
:40030000C078704710B50B0E8354531C0C14C454931C0C12C4540332815410BD10B503F075FE002801D0002400E0012403F076FE002800D1023403F079FE002800D1043438
:4003400003F07CFE002800D10834002C00D10134200010BD10B582B00400031F112B60D89B003E4AD3589F463D4B1868596806F0A5FCFA239B00584357E03A4B18683A4986
:4003800004F06EFD04F054FD384B58434DE0354B5868374904F064FD04F04AFD334B584343E0344B0020185EFA239B0058433CE0314B0020185EFA239B00584335E02F4B4A
:4003C0000020185EFA239B0058432EE02C4B1868596806F073FCFA239B00584325E0284B1868596806F06AFCFA239B0058431CE0234B1868596806F061FCFA239B005843DD
:4004000013E0204B0020185E0FE01F4B0020185E0BE01E4B0020185E07E01D4B0020185E03E01C4804F08EF90020E3B21A4C0090012202212000FFF731FF200000F03AFBCC
:40044000002809D103F00EFE43425841C0B203F0FDFD322002F08EFF02B010BDA094000028030020380300200000B4428096980000003443560200207E030020220300205B
:400480007003002054020020FC03002050030020F0020020E8940000BC02002070B584B062B604F0D9F8FFF739FF0100042000F0B5FA00F075F902F05FFD924804F042F958
:4004C000914804F03FF9914B1B68002B02D0032B1BD0F8E78E4800F00FFC002811D18D4804F030F98A48FFF70BFFF52809D18848FFF7EAFE0400884804F024F92000FFF764
:4005000029FF0322814B1A60DDE7844800F06EFA002807D0824D6C468049684600F014FA0ECC0EC502F0BCFA764D280004F00AF97C4804F007F97C4C794E0A222100B06868
:4005400006F06BFE04F0FEF8784804F0FBF8306804F082FF0A22210006F05FFE04F0F2F8734804F0EFF8706804F076FF0A22210006F053FE04F0E6F86E4E300004F0E2F809
:40058000280004F0DFF86C4804F0DCF86B4B1868596806F093FB0A22210006F03EFE04F0D1F8674804F0CEF8664B1868596806F085FB0A22210006F030FE04F0C3F862487A
:4005C00004F0C0F8614B1868596806F077FB0A22210006F022FE04F0B5F8280004F0B2F85B4804F0AFF85B4B1868596806F066FB0A22210006F011FE04F0A4F8564804F040
:40060000A1F8564B1868596806F058FB0A22210006F003FE04F096F8514804F093F8514B1868596806F04AFB0A22210006F0F5FD04F088F8280004F085F84B4804F082F8BD
:400640004A4B1868596806F039FB0A22210006F0E4FD04F077F8464804F074F8454B1868596806F02BFB0A22210006F0D6FD04F069F8414804F066F8404B1868596806F010
:400680001DFB0A22210006F0C8FD04F05BF8280004F058F83A4804F055F83A4B0020185E0A22210006F0B9FD04F04CF8364804F049F8364B0020185E0A22210006F0ADFDA1
:4006C00004F040F8324804F03DF8324B0020185E0A22210006F0A1FD04F034F82E4804F031F82E4B0020185E0A22210006F095FD04F028F8300004F025F80022034B1A6061
:40070000E1E6C046089500000C950000A4010020F00300204895000058950000880300203803002070950000D0020020789500008895000098950000A0950000400400201F
:40074000B495000080030020C8950000E0030020DC95000070030020F0950000300300200496000010040020189600002803002020960000000400202C960000F8020020D4
:40078000389600005402002044960000FC03002050960000500300205C960000F002002010B5FF2003F01CF903F054F8084803F00BF9084803F008F9074803F005F907485A
:4007C00003F002F90021D020400003F017F910BD689600007C96000094960000D09600002F280BD9392802D83038C0B20BE0402806D9462806D83738C0B204E0002002E0B5
:40080000002000E00020704770B505000078FFF7E7FF0001C4B26878FFF7E2FF2018C0B270BDC04610B5040006F014FD0023002203E0E11849784A400133011F8B42F8DB28
:40084000D0B210BD70B5040006F004FD02382018FFF7DAFF05002000FFF7E4FF854201D1012000E0002070BD70B50C00204906F0F8FC051E3AD0FFF7E5FF002837D01D4EBE
:400880003100280007F05AFB3100002007F056FB3100002007F052FB0100200006F0D2FC3100002007F04AFB01002000203006F0C9FC3100002007F041FB010020001030E2
:4008C00006F0C0FC3100002007F038FB01002000223006F0B7FC3100002007F02FFB01002000243006F0AEFC012000E0002070BDEC960000F496000070B504000D00002276
:400900000F4B05F0F7F806F0D9F906006420704306F00AFA02000B002000290005F07AFE0022084B05F0E6F804000D00300006F0FBF902000B002000290004F0AFFD70BD21
:400940000000594000004E4070B504000D00080006F014FC06F07EFA20602023EB5C532B04D180231B069C4660442060206806F01DFAFFF7C1FF06F06DFA206028001030E7
:4009800006F0FCFB06F066FA60602223EB5C572B04D180231B069C4660446060606806F005FAFFF7A9FF06F055FA60602800243006F0E9FBA060200070BDC04670B5060013
:4009C0000D0000240BE002F0E5FFC0B20D2809D00300203BDBB25E2B01D8305501346B1E9C42F0DB34190023237070BD30B5C1B0050000240AE0FF216846FFF7DFFF2900E8
:400A00006846FFF731FF2418002C03D102F038FF0028F0D1200041B030BDC046F8B504000D0003F033FA0F2020401A4E30603F212940194B1960194C00252570800108439A
:400A40004005E060164FA760164B1B686360200003F0E8F801232370E560A760124B1B686360200003F0DEF8022323703368DB06FC22D2041343E360A7600C4B1B686360F7
:400A8000200003F0CFF802F0C9FF09491D2002F039FCF8BD480400205C0400204C040020FFFF1F80A0002F40C0002F40E0002F40A50B000010B586B0002815D0038802ACC0
:400AC00002930023237163718278A271E3716B460593C11C0822684606F0A3FB200003F0EBF9002802D102E0022000E0012006B010BDC046014B18787047C0465C0400204A
:400B0000014B18787047C04648040020104B1878C0B2002819D15A78D2B29B78DBB29A4205D20B4A93785078181AC0B20EE0084B5A78D2B29B78DBB29A4207D9044A937880
:400B40005078181A1030C0B200E010207047C046A8010020124A93780133DBB293709378DBB20F2B02D900220D4B9A700C4B1B78002B0BD00A4A53780133DBB25370537879
:400B8000DBB20F2B02D90022054B5A70044A537891785B1A59424B41DBB213707047C046A801002070B580225201444B1A60444B1B68DA0706D49A0706D45A0706D41B073B
:400BC00006D406E0002404E0012402E0022400E003243C4B9A78D2B264013B4B9C4664442368DB0202D46168490D02E06168C90889B2364B500082189000C152314A9178C1
:400C0000C9B22068000C0F2528404D0069188D005D19A8709178C9B2A5682D0E4800411888001818C5709178C9B2A068000CC0B24D0069188D005D1928719178C9B2A068C6
:400C4000000AC0B24D0069188D005D1968719178C9B2A568EDB2480041188800181885719178C9B2E5682D0E4800411888001818C5719178C9B2E068000CC0B24D0069181C
:400C80008D005D1928729178C9B2E068000AC0B24D0069188D005D1968729278D2B2E068C0B251008A1891005B189872FFF752FF226801231343236070BDC04600002F40EB
:400CC00008002F40A8010020A0002F406004002010B5FFF71BFF00280BD0064A53780133DBB253705378DBB20F2B02D90022014B5A7010BDA801002010B582B0041E17D06F
:400D0000FFF704FF6B46D87107331B78002B11D00A4B5B78DBB25A00D3189900084B59180C22200006F07DFAFFF7D2FF002002E0022000E0022002B010BDC046A80100209A
:400D400060040020F0B5474680B482B06B46DC1D002323706A460632137001AF3B707B70314D2860C668407A01330721B04706002B681A699046587A012322000021C047D3
:400D80008619F6B22B6822781A701A699046587A012322000121C0473618F6B22B6822785A711A699046587A012322000221C0473618F6B22B6822789A711A699046587AB9
:400DC000012322000321C0473618F6B22B682278DA711A699046587A012322000621C0473618F6B22B6822781A721A699046587A02233A000421C0473618F6B239782B68D6
:400E00007A7812020A435A801F69587A012322000721B847301840B22B6822781A7102B004BC9046F0BDC046AC01002070B50500064C2468002C06D0E668607A13000A00B5
:400E40002900B04701E07F20404270BDAC01002070B582B0050000226B46DA71124B1B68002B1AD01C69587A01236A4607320721A047041E14D16B46DA1D15700A4B1B6868
:400E8000DE68587A01230721B047041960B2002808D1054B1B681D7104E07F20404201E00120404202B070BDAC01002070B582B0050001AB00221A705A70154B1B68002B85
:400EC0001FD01B79002B03D00020FFF7C1FF01E001204042002804D00D4B1B681B79002B12D10B4B1B681E69587A01AC022322000821B04722780123E3561B0213432B8043
:400F000004E07F20404201E00120404202B070BDAC01002070B582B0050001AB00221A705A70154B1B68002B1FD01B79002B03D00020FFF78DFF01E001204042002804D04D
:400F40000D4B1B681B79002B12D10B4B1B681E69587A01AC022322000A21B04722780123E3561B0213432B8004E07F20404201E00120404202B070BDAC01002070B582B00B
:400F8000050001AB00221A705A70154B1B68002B1FD01B79002B03D00020FFF759FF01E001204042002804D00D4B1B681B79002B12D10B4B1B681E69587A01AC02232200EA
:400FC0000C21B04722780123E3561B0213432B8004E07F20404201E00120404202B070BDAC01002030B583B0040006220021684606F020F91C4B1B68002B2DD01B79002B90
:4010000003D00020FFF724FF01E001204042002804D0154B1B681B79002B20D1124B1B681D69587A06236A460821A8476B461A785B785BB21B02134323806B469A78DB7819
:401040005BB21B02134363806B461A795B795BB21B021343A38004E07F20404201E00120404203B030BDC046AC01002070B582B0050001AB00221A705A70154B1B68002BCA
:401080001FD01B79002B03D00020FFF7E1FE01E001204042002804D00D4B1B681B79002B12D10B4B1B681E69587A01AC022322000E21B04722780123E3561B0213432B805C
:4010C00004E07F20404201E00120404202B070BDAC01002070B582B0050001AB00221A705A70154B1B68002B1FD01B79002B03D00020FFF7ADFE01E001204042002804D06D
:401100000D4B1B681B79002B12D10B4B1B681E69587A01AC022322001021B04722780123E3561B0213432B8004E07F20404201E00120404202B070BDAC01002070B582B043
:40114000050001AB00221A705A70154B1B68002B1FD01B79002B03D00020FFF779FE01E001204042002804D00D4B1B681B79002B12D10B4B1B681E69587A01AC0223220009
:401180001221B04722780123E3561B0213432B8004E07F20404201E00120404202B070BDAC01002030B583B0040006220021684606F040F81C4B1B68002B2DD01B79002BA9
:4011C00003D00020FFF744FE01E001204042002804D0154B1B681B79002B20D1124B1B681D69587A06236A460E21A8476B461A785B785BB21B02134323806B469A78DB7833
:401200005BB21B02134363806B461A795B795BB21B021343A38004E07F20404201E00120404203B030BDC046AC01002070B582B0050001AB00221A705A70154B1B68002B08
:401240001FD01B79002B03D00020FFF701FE01E001204042002804D00D4B1B681B79002B12D10B4B1B681E69587A01AC022322001421B04722780123E3561B0213432B8074
:4012800004E07F20404201E00120404202B070BDAC01002070B582B0050001AB00221A705A70154B1B68002B1FD01B79002B03D00020FFF7CDFD01E001204042002804D08C
:4012C0000D4B1B681B79002B12D10B4B1B681E69587A01AC022322001621B04722780123E3561B0213432B8004E07F20404201E00120404202B070BDAC01002070B582B07C
:40130000050001AB00221A705A70154B1B68002B1FD01B79002B03D00020FFF799FD01E001204042002804D00D4B1B681B79002B12D10B4B1B681E69587A01AC0223220028
:401340001821B04722780123E3561B0213432B8004E07F20404201E00120404202B070BDAC01002030B583B0040006220021684605F060FF1C4B1B68002B2DD01B79002BBB
:4013800003D00020FFF764FD01E001204042002804D0154B1B681B79002B20D1124B1B681D69587A06236A461421A8476B461A785B785BB21B02134323806B469A78DB784C
:4013C0005BB21B02134363806B461A795B795BB21B021343A38004E07F20404201E00120404203B030BDC046AC01002070B582B0050001AB00221A705A70154B1B68002B47
:401400001FD01B79002B03D00020FFF721FD01E001204042002804D00D4B1B681B79002B12D10B4B1B681E69587A01AC022322001A21B04722780123E3561B0213432B808D
:4014400004E07F20404201E00120404202B070BDAC01002070B582B0050001AB00221A705A70154B1B68002B1FD01B79002B03D00020FFF7EDFC01E001204042002804D0AB
:401480000D4B1B681B79002B12D10B4B1B681E69587A01AC022322001C21B04722780123E3561B0213432B8004E07F20404201E00120404202B070BDAC01002070B582B0B4
:4014C000050001AB00221A705A70154B1B68002B1FD01B79002B03D00020FFF7B9FC01E001204042002804D00D4B1B681B79002B12D10B4B1B681E69587A01AC0223220048
:401500001E21B04722780123E3561B0213432B8004E07F20404201E00120404202B070BDAC01002030B583B0040006220021684605F080FE1C4B1B68002B2DD01B79002BD4
:4015400003D00020FFF784FC01E001204042002804D0154B1B681B79002B20D1124B1B681D69587A06236A461A21A8476B461A785B785BB21B02134323806B469A78DB7865
:401580005BB21B02134363806B461A795B795BB21B021343A38004E07F20404201E00120404203B030BDC046AC01002070B582B0050001AB00221A705A70154B1B68002B85
:4015C0001FD01B79002B03D00020FFF741FC01E001204042002804D00D4B1B681B79002B12D10B4B1B681E69587A01AC022322002021B04722780123E3561B0213432B80A7
:4016000004E07F20404201E00120404202B070BDAC01002070B582B0050001AB00221A705A70154B1B68002B1FD01B79002B03D00020FFF70DFC01E001204042002804D0C9
:401640000D4B1B681B79002B12D10B4B1B681E69587A01AC022322002221B04722780123E3561B0213432B8004E07F20404201E00120404202B070BDAC01002070B582B0EC
:40168000050001AB00221A705A70154B1B68002B1FD01B79002B03D00020FFF7D9FB01E001204042002804D00D4B1B681B79002B12D10B4B1B681E69587A01AC0223220067
:4016C0002421B04722780123E3561B0213432B8004E07F20404201E00120404202B070BDAC01002070B582B0050001AB00221A705A70154B1B68002B1FD01B79002B03D057
:401700000020FFF7A5FB01E001204042002804D00D4B1B681B79002B12D10B4B1B681E69587A01AC022322002621B04722780123E3561B0213432B8004E07F20404201E097
:401740000120404202B070BDAC01002030B583B0040008220021684605F06CFD1F4B1B68002B34D01B79002B03D00020FFF770FB01E001204042002804D0184B1B681B797E
:40178000002B27D1154B1B681D69587A08236A462021A8476B461A785B785BB21B02134323806B469A78DB785BB21B02134363806B461A795B795BB21B021343A3806B46A2
:4017C0009A79DB795BB21B021343E38004E07F20404201E00120404203B030BDAC01002070B582B0050001AB00221A705A70154B1B68002B1FD01B79002B03D00020FFF786
:4018000027FB01E001204042002804D00D4B1B681B79002B12D10B4B1B681E69587A01AC022322002821B04722780123E3561B0213432B8004E07F20404201E00120404285
:4018400002B070BDAC01002070B582B0050001AB00221A705A70154B1B68002B1FD01B79002B03D00020FFF7F3FA01E001204042002804D00D4B1B681B79002B12D10B4B59
:401880001B681E69587A01AC022322002A21B04722780123E3561B0213432B8004E07F20404201E00120404202B070BDAC01002070B582B0050001AB00221A705A70154BEE
:4018C0001B68002B1FD01B79002B03D00020FFF7BFFA01E001204042002804D00D4B1B681B79002B12D10B4B1B681E69587A01AC022322002C21B04722780123E3561B026F
:4019000013432B8004E07F20404201E00120404202B070BDAC01002030B583B0040006220021684605F086FC1C4B1B68002B2DD01B79002B03D00020FFF78AFA01E00120A7
:401940004042002804D0154B1B681B79002B20D1124B1B681D69587A06236A462821A8476B461A785B785BB21B02134323806B469A78DB785BB21B02134363806B461A7917
:401980005B795BB21B021343A38004E07F20404201E00120404203B030BDC046AC01002070B582B0050001AB00221A705A70154B1B68002B1FD01B79002B03D00020FFF791
:4019C00047FA01E001204042002804D00D4B1B681B79002B12D10B4B1B681E69587A01AC022322002E21B04722780123E3561B0213432B8004E07F20404201E0012040429F
:401A000002B070BDAC01002070B582B0050001AB00221A705A70154B1B68002B1FD01B79002B03D00020FFF713FA01E001204042002804D00D4B1B681B79002B12D10B4B77
:401A40001B681E69587A01AC022322003021B04722780123E3561B0213432B8004E07F20404201E00120404202B070BDAC01002070B582B0050001AB00221A705A70154B26
:401A80001B68002B1FD01B79002B03D00020FFF7DFF901E001204042002804D00D4B1B681B79002B12D10B4B1B681E69587A01AC022322003221B04722780123E3561B0288
:401AC00013432B8004E07F20404201E00120404202B070BDAC01002030B583B0040006220021684605F0A6FB1C4B1B68002B2DD01B79002B03D00020FFF7AAF901E00120A8
:401B00004042002804D0154B1B681B79002B20D1124B1B681D69587A06236A462E21A8476B461A785B785BB21B02134323806B469A78DB785BB21B02134363806B461A794F
:401B40005B795BB21B021343A38004E07F20404201E00120404203B030BDC046AC01002030B583B005006B46981D00230380FFF77DFA041E0CD16B4606330020185E05F0E8
:401B8000D3F80022054B04F0CBFA2860696001E001246442200003B030BDC0460000B03F30B583B005006B46981D00230380FFF791FA041E0CD16B4606330020185E05F05F
:401BC000B3F80022054B04F0ABFA2860696001E001246442200003B030BDC0460000B03F30B583B005006B46981D00230380FFF7A5FA041E0CD16B4606330020185E05F04B
:401C000093F80022054B04F08BFA2860696001E001246442200003B030BDC0460000B03F30B583B0050000236A461380538093806846FFF7B7FA041E21D16B460020185E63
:401C400005F072F80022104B04F06AFA286069606B460220185E05F067F800220A4B04F05FFAA860E9606B460420185E05F05CF80022054B04F054FA2861696101E001248C
:401C80006442200003B030BD0000B03F30B583B005006B46981D00230380FFF7A1FD041E0CD16B4606330020185E05F03DF80022054B03F01FFF2860696001E001246442E9
:401CC000200003B030BDC0460000594030B583B005006B46981D00230380FFF7B5FD041E0CD16B4606330020185E05F01DF80022054B03F0FFFE2860696001E001246442CC
:401D0000200003B030BDC0460000594030B583B005006B46981D00230380FFF7C9FD041E0CD16B4606330020185E04F0FDFF0022054B03F0DFFE2860696001E001246442B1
:401D4000200003B030BDC0460000594030B583B0050000236A461380538093806846FFF7DBFD041E21D16B460020185E04F0DCFF0022104B03F0BEFE286069606B460220A5
:401D8000185E04F0D1FF00220A4B03F0B3FEA860E9606B460420185E04F0C6FF0022054B03F0A8FE2861696101E001246442200003B030BD0000594030B583B005006B4648
:401DC000981D00230380FFF7EBFD041E0CD16B4606330020185E04F0A7FF0022054B03F089FE2860696001E001246442200003B030BDC0460000594030B583B005006B467B
:401E0000981D00230380FFF7FFFD041E0CD16B4606330020185E04F087FF0022054B03F069FE2860696001E0013844B2200003B030BDC0460000594030B583B005006B4602
:401E4000981D00230380FFF713FE041E0CD16B4606330020185E04F067FF0022054B03F049FE2860696001E0013844B2200003B030BDC0460000594030B583B0050000237B
:401E80006A461380538093806846FFF725FE041E21D16B460020185E04F046FF0022104B03F028FE286069606B460220185E04F03BFF00220A4B03F01DFEA860E9606B46B9
:401EC0000420185E04F030FF0022054B03F012FE2861696101E0013844B2200003B030BD0000594070B582B0050000226B46DA71144B1B68002B1ED01B79002B03D00020CD
:401F0000FEF7A6FF01E001204042002804D00D4B1B681B79002B11D10A4B1B681E69587A6B46DC1D012322003B21B0472378012213402B7004E07F20404201E00120404262
:401F400002B070BDAC01002070B582B0050000226B46DA71154B1B68002B1FD01B79002B03D00020FEF774FF01E001204042002804D00E4B1B681B79002B12D10B4B1B684D
:401F80001E69587A6B46DC1D012322003B21B04723785B10012213402B7004E07F20404201E00120404202B070BDC046AC01002070B582B0050000226B46DA71154B1B68D6
:401FC000002B1FD01B79002B03D00020FEF740FF01E001204042002804D00E4B1B681B79002B12D10B4B1B681E69587A6B46DC1D012322003B21B04723789B1001221340B2
:402000002B7004E07F20404201E00120404202B070BDC046AC01002070B582B0050000226B46DA71144B1B68002B1ED01B79002B03D00020FEF70CFF01E0012040420028F7
:4020400004D00D4B1B681B79002B11D10A4B1B681E69587A6B46DC1D012322003D21B04723780F2213402B7004E07F20404201E00120404202B070BDAC01002070B582B054
:40208000050000236A46D3716A46937106323F4B1B68002B6ED01000FFF7BEFF00286CD16B4606331B78002B22D1384B1B681C69587A01236A4607323D21A047041E5FD1DE
:4020C0006B46DA1D11780F2399431D400D4315702E4D2B68DE68587A01233D21B047001944B22B685B6996208000984720004AE0264B1B681C69587A01236A4607323D2155
:40210000A0470600041E10D16B46D91D0B780F2293430B700E3A3D20FEF788FE861974B21A4B1B685B6914209847002D29D0174B1B681C69587A01236A4607323D21A047AB
:40214000041E20D16B46DA1D13780F218B430D401D4315700D4D2B68DE68587A01232E31B047001944B22B685B69962080009847200008E07F20404205E00120404202E05C
:4021800001E02000FFE702B070BDC046AC01002070B582B0050000236A46D3716A4693710632234B1B68002B3BD01000FFF734FF041E28D16B4606331B78002B03D0FFF73B
:4021C0005DFF041960B2002820D1194B1B681C69587A01236A4607323B21A0470600041E16D16B46DA1D137801218B430D401D4315700F4B1B68DC68587A01233A31A047E0
:40220000861974B204E00124644201E0012464426B469879002807D0FFF730FF001940B203E07F20404200E0200002B070BDC046AC010020F0B583B0070000226B46DA80CB
:402240006B465D1D00232B702800FFF74BFE060004002B78002B04D00020FFF799FF861974B2002C14D16B46981DFEF71FFE041964B2002C0FD16B4606330020185E04F0B3
:4022800053FD0022064B03F035FC3860796004E00124644201E001246442200003B0F0BD00005940F0B583B0070000226B46DA806B465D1D00232B702800FFF713FE060028
:4022C00004002B78002B04D00020FFF761FF861974B2002C14D16B46981DFEF71BFE041964B2002C0FD16B4606330020185E04F01BFD0022064B03F0FDFB3860796004E0FA
:402300000124644201E001246442200003B0F0BD00005940F0B583B0070000226B46DA806B465D1D00232B702800FFF7DBFD060004002B78002B04D00020FFF729FF861999
:4023400074B2002C14D16B46981DFEF717FE041964B2002C0FD16B4606330020185E04F0E3FC0022064B03F0C5FB3860796004E00124644201E001246442200003B0F0BDB2
:4023800000005940F0B585B0060002AB00221A805A809A806B46DD1D00232B702800FFF7A1FD070004002B78002B04D00020FFF7EFFEC7197CB2002C26D102A8FEF712FE92
:4023C000041964B2002C22D102AD0023E85E04F0ABFC0022104B03F08DFB306071600223E85E04F0A1FC00220B4B03F083FBB060F1600423E85E04F097FC0022064B03F0DF
:4024000079FB3061716104E00124644201E001246442200005B0F0BD0000594070B582B0050000236A46D3716A4693710632244B1B68002B3ED01000FFF7EEFD041E2BD1B6
:402440006B4606331B78002B03D0FFF717FE041960B2002823D11A4B1B681C69587A01236A4607323B21A0470600041E19D16B006A460732157802218D43290002251D4069
:402480000D4315700E4B1B68DC68587A01233B21A047861974B204E00124644201E0012464426B469879002807D0FFF7E7FD001940B203E07F20404200E0200002B070BD45
:4024C000AC010020F0B583B0070000226B46DA806B465D1D00232B702800FFF735FD060004002B78002B04D00020FFF797FF861974B2002C14D16B46981DFEF797FE04198F
:4025000064B2002C0FD16B4606330020185E04F00BFC0022064B03F003FE3860796004E00124644201E001246442200003B0F0BD0000B03FF0B583B0070000226B46DA8050
:402540006B465D1D00232B702800FFF7FDFC060004002B78002B04D00020FFF75FFF861974B2002C14D16B46981DFEF793FE041964B2002C0FD16B4606330020185E04F0C6
:40258000D3FB0022064B03F0CBFD3860796004E00124644201E001246442200003B0F0BD0000B03FF0B583B0070000226B46DA806B465D1D00232B702800FFF7C5FC06000A
:4025C00004002B78002B04D00020FFF727FF861974B2002C14D16B46981DFEF78FFE041964B2002C0FD16B4606330020185E04F09BFB0022064B03F093FD3860796004E0A7
:402600000124644201E001246442200003B0F0BD0000B03FF0B585B0060002AB00221A805A809A806B46DD1D00232B702800FFF78BFC070004002B78002B04D00020FFF7A6
:40264000EDFEC7197CB2002C26D102A8FEF78AFE041964B2002C22D102AD0023E85E04F063FB0022104B03F05BFD306071600223E85E04F059FB00220B4B03F051FDB060B6
:40268000F1600423E85E04F04FFB0022064B03F047FD3061716104E00124644201E001246442200005B0F0BD0000B03F70B582B0050000236A46D3716A4693710632244B77
:4026C0001B68002B3ED01000FFF7A6FC041E2BD16B4606331B78002B03D0FFF7CFFC041960B2002823D11A4B1B681C69587A01236A4607323B21A0470600041E19D1AB0085
:402700006A460732157804218D43290004251D400D4315700E4B1B68DC68587A01233B21A047861974B204E00124644201E0012464426B469879002807D0FFF79FFC0019C6
:4027400040B203E07F20404200E0200002B070BDAC010020F0B583B0070000226B46DA806B465D1D00232B702800FFF721FC060004002B78002B04D00020FFF797FF861990
:4027800074B2002C14D16B46981DFEF72FFE041964B2002C0FD16B4606330020185E04F0C3FA0022064B03F0BBFC3860796004E00124644201E001246442200003B0F0BD81
:4027C0000000B03FF0B583B0070000226B46DA806B465D1D00232B702800FFF7E9FB060004002B78002B04D00020FFF75FFF861974B2002C14D16B46981DFEF72BFE04195C
:4028000064B2002C0FD16B4606330020185E04F08BFA0022064B03F083FC3860796004E00124644201E001246442200003B0F0BD0000B03FF0B583B0070000226B46DA8051
:402840006B465D1D00232B702800FFF7B1FB060004002B78002B04D00020FFF727FF861974B2002C14D16B46981DFEF727FE041964B2002C0FD16B4606330020185E04F0B4
:4028800053FA0022064B03F04BFC3860796004E00124644201E001246442200003B0F0BD0000B03FF0B585B0060002AB00221A805A809A806B46DD1D00232B702800FFF71F
:4028C00077FB070004002B78002B04D00020FFF7EDFEC7197CB2002C26D102A8FEF722FE041964B2002C22D102AD0023E85E04F01BFA0022104B03F013FC3060716004234E
:40290000E85E04F011FA00220B4B03F009FC306171610223E85E04F007FA0022064B03F0FFFBB060F16004E00124644201E001246442200005B0F0BD0000B03F70B582B03B
:40294000050000236A46D3716A4693710632234B1B68002B3BD01000FFF75EFB041E28D16B4606331B78002B03D0FFF787FB041960B2002820D1194B1B681C69587A012311
:402980006A4607323E21A0470600041E16D16B46DA1D137803218B430D401D4315700F4B1B68DC68587A01233B31A047861974B204E00124644201E0012464426B46987936
:4029C000002807D0FFF75AFB001940B203E07F20404200E0200002B070BDC046AC01002010B500F0C7FC10BDF0B583B000AF78600C0015001E0001F06BFD721C0836F608C6
:402A0000F6006B469B1B9D4669460C70012304E0E81801380078C85401339342F8DB0023786801F075FD040001F03AFD8307FBD560B2BD4603B0F0BDF8B504000E00170043
:402A40001D0001F045FD14220021200001F038FC1421300001F0C2FC0A2001F093FC14220121200001F02CFC060000240FE06B1E9C4205DA39191422002001F0D3FC04E070
:402A800039191422012001F0CDFC0134E4B2AC4201D2002EEBD0142001F074FC40B2F8BDF8B55F4656464D464446F0B4F14C01235B4223600023F04A1370F0480380F04AFD
:402AC0001380F04A1380F04A1380F04A1380F04A1380F04A1380F04A1380F04A1380F04A1380F04A1380F04A1380F04A1380F04A1380F04A1380F04A1380F04A1380F04A06
:402B00001380F04A1380F04A1380F04A1380F04A138000220023EF490A604B60EE490A604B60EE490A604B60ED490A604B60ED490A604B60EC490A604B60EC490A604B607A
:402B4000EB490A604B60EB490A604B60EA490A604B60EA498B460A604B60E9498A460A604B60E84989460A604B60E74988460A604B60E64F3A607B60E54E32607360E54DAF
:402B80002A606B60FEF792F923689C4660442060BB48FEF7BFF923689C4660442060B948FEF7ECF923689C4660442060DA48FEF719FA23689C4660442060B348FEF756FA07
:402BC00023689C4660442060B048FEF783FA23689C4660442060AE48FEF7B0FA23689C4660442060CD48FEF7DDFA23689C4660442060A848FEF71AFB23689C466044206026
:402C0000A548FEF747FB23689C4660442060A348FEF774FB23689C4660442060C048FEF7A1FB23689C46604420609D48FEF7DEFB23689C46604420609A48FEF70BFC236828
:402C40009C46604420609848FEF738FC23689C4660442060B348FEF765FC23689C46604420609248FEF7A2FC23689C46604420608F48FEF7CFFC23689C46604420608D48D7
:402C8000FEF7FCFC23689C46604420608A48FEF729FD23689C4660442060A348FEF756FD23689C46604420608448FEF799FD23689C46604420608248FEF7C6FD23689C467D
:402CC000604420607F48FEF7F3FD23689C46604420609648FEF720FE23689C46604420607948FEF75DFE23689C46604420607748FEF78AFE23689C46604420607448FEF7D1
:402D0000B7FE23689C46604420608948FEF7E4FE23689C46604420608648FFF78BFA23689C46604420606B48FFF7BCFA23689C46604420606848FFF7EDFA23689C466044AC
:402D400020607D48FFF71EFB23689C46604420606248FEF705FF23689C46604420606048FEF71EFF23689C46604420605D48FEF737FF23689C46604420607048FEF750FF92
:402D800023689C46604420605748FFF79BFB23689C46604420605548FFF7CCFB23689C46604420605248FFF7FDFB23689C46604420606348FFF72EFC23689C466044206066
:402DC0004C48FFF7C7FC23689C46604420604A48FFF7F8FC23689C46604420605846FFF729FD23689C46604420605648FFF75AFD23689C46604420605046FEF747FF2368C5
:402E00009C46604420604846FEF760FF23689C46604420604046FEF779FF23689C46604420604948FEF792FF23689C46604420603800FEF7C1FF23689C466044206030003F
:402E4000FEF7DAFF23689C46604420602800FEF7F3FF23689C46604420603C48FFF70CF823689C46604420603CBC90469946A246AB46F8BDEC030020A002002020030020F5
:402E8000380200203C0400204A020020F2020020FE03002060020020F4020020520200205E020020E80300201802002054020020FC03002050030020F00200205602002054
:402EC0007E03002022030020380400203A040020B80200204803002008040020C8020020D00300206802002070030020300300201004002028030020F802002000040020B7
:402F00004004002080030020E0030020B0030020A8020020B0020020000300204402002058020020180400203C020020780300204C020020D8030020580300208802002052
:402F4000200200202004002008030020B8030020054B064ADA60064A1A61064A5A6128225A7200207047C04670020020E9290000392A0000E129000010B501F051FB43428A
:402F80005841C0B201F040FB142000F0F3F901F047FB43425841C0B201F036FBFA20800000F0E8F901F07CF8FFF7D2FF0448FDF7C9FE0020FFF7C2FC0C20FFF75FF810BD2D
:402FC000700200200323044A1360044A13600022034B1A607047C0463000304030003140000E3F4010B50A00002104F023F910BD10B504F0CFF803680C2B00D1FEE7FEE798
:4030000010B50300084A1068C318084A9A1A802A02DC054A136005E004F0BCF80C2303600120404210BDC046C40000205005002070B50F4E0F4D13E029686B68AC6800227A
:4030400002E001C901C30432A242FAD1E868002202E0002102C304328242FAD11035013E002EE9D104F09CF8FDF718FAFEE7C04601000000CC9B000010B50E4A13680121F5
:403080008B43136000230AE0032B03D89A000A49505800E009489900094A885001332F2BF2D9FDF725F8034A116801230B43136010BDC0460000104000000000F12F0000D7
:4030C00000000020074B1B78272B05D8064B1B78DBB2064A136004E0054B1B78DBB2034A1360704702F3FF0F42F3FF0F20FF0B40C1F1FF0F00230AE0204A12683F210A4092
:403100001F49C95C8A4201D1033303E001332D2BF2D903231B4A12781B2A16D8302B05D1194B1B78DBB2194A136006E0182B04D1174B1B78DBB2154A136016490B681F22BC
:403140009343173A13430B6016E0302B05D1124B1B78DBB20D4A136006E0182B04D10F4B1B78DBB2094A13600A4A13681F218B430B4909780B4313607047C0462CFF0B4015
:403180000497000002F3FF0F3FF3FF0F28FF0B403EF3FF0F34FF0B40C3F1FF0FC2F1FF0FC0F1FF0F00230AE00D4A12683F210A400C49C95C8A4201D1033303E001332D2B7B
:4031C000F2D9032308490868084A02400A60084A944663441B78DBB2064A13607047C0462CFF0B400497000000002240FFFFFFBF4DF3FF0F28FF0B40034B18688023DB056C
:40320000184000D0012070470000224010B50B4A136801218B431360094B1A68094B1A60094A12685A60FFF765FFFFF74BFF074A116802230B43136010BDC04650000C4050
:4032400034FF0B40B001002020FF0B4024002C4030B500230AE0134A12683F210A401249C95C8A4201D1033303E001332D2BF2D903230E490A68022082430A600C4C2168E3
:403280001F2291430B4805682A400A4322604168094A1160094A944663441B78DBB2084A136030BD2CFF0B400497000024002C4034FF0B40B001002020FF0B404DF3FF0F45
:4032C00028FF0B40034B1B680220184000D001207047C04624002C401F2318401E3B8340014A13607047C04600E100E01F2318401E3B8340014A13607047C04680E100E06F
:4033000001BE704770B504000D001F2802D90020FFF7F6FF1034A40080239B059C4664442068256070BDC04670B504000E00032902D90020FFF7E4FF1F2C02D90020FFF74C
:40334000DFFF03252540ED00063501F012FAA408A400074B9C46644421680323AB4099430B003100A9401943216001F006FA70BD00E400E010B5040006E0084B586801F084
:40338000EFF9074B9C46644480231B029C42F4D8024B9868604301F0E3F910BDC80000200080FFFF70B582B000F090F9002862D001F0DFF90500314A116801230B4313601E
:4033C00000230AE02E4A12683F210A402D49C95C8A4201D1033303E001332D2BF2D903230021294A1160294A1268D20606D1274802681F318A4313390A430260244C2168CA
:40340000244A1140244A5A438023DB019C466244D20B013A5205520D0B001343A0225203134323601D4B1B680193302001F0A8F91B4A13688021C9050B4313602668194B39
:403440001E40002407E00120FFF794FF1034A30533430F4A1360EE2CF5D90120FFF78AFFFF239B051E430A4B1E60019A0B4B1A60280001F082F902B070BDC04650000C400D
:403480002CFF0B400497000028FF0B4034FF0B400800224000F800C040420F003000104000002240FFFF3FC010B5034B1B7B584301F056F910BDC046C8000020F0B55F46F0
:4034C00056464D464446F0B483B0040001F051F90190FFF791FE002804D0FFF763FE01239A4601E000239A46FFF7ECFE002808D0182C01D0302C07D1FFF7AAFE01239B46E0
:4035000004E000239B4601E000239B46E61E2D2E74D8464B1B78DBB29C4208D8444B1B78DBB29946434B1B78DBB2984631E0424B1B78DBB29C4208D8404B1B78DBB2994684
:403540003F4B1B78DBB2984623E03E4B1B78DBB29C4208D83C4B1B78DBB299463B4B1B78DBB2984615E03A4B1B78DBB29C4208D8384B1B78DBB29946374B1B78DBB29846F5
:4035800007E0364B1B78DBB29946354B1B78DBB29846344B9F5D2F2F09D92A2C07D91922314B1A60052001F0DBF8192503E02E4B1D683F231D40BD4206D92A4B9A5D2A4B7E
:4035C0001A60052001F0CCF8254B9C4664442378DBB2264A1360264B4A461A60254B42461A600520FFF760FFBD420AD21D4B9A5D1D4B1A60052001F0B3F802E00020FFF736
:403600007FFE5346012B01D1FFF7CCFE5B46012B01D1FFF7FBFD019801F0AFF803B03CBC90469946A246AB46F0BDC04640F3FF0F41F3FF0F42F3FF0F43F3FF0F44F3FF0FBD
:4036400045F3FF0F46F3FF0F47F3FF0F48F3FF0F49F3FF0F4AF3FF0F4BF3FF0F4CF3FF0F4DF3FF0F049700002CFF0B4028FF0B401CFF0B4020FF0B40034B1868C0231B028F
:40368000184000D00120704700010B4010B50D4B1A6801218A431A601A68022082431A60094A10683024A043203C204310601068093CA043014311601A68802109060A43CE
:4036C0001A6010BD00002240000F2240034B1B68002B01DA012000E0002070470000224010B501F046F8044A1368C02109020B43136001F042F810BD00010B4010B501F03B
:4037000038F808490A68084B1A408024E40122430A600A6813408022120213430B6001F02CF810BD00010B40FF3FFFFF70B5050001F01FF80400FFF79FFF002803D0FFF730
:40374000DDFF012100E0002108482840084A1568084B2B40184310601368012901D1FFF7BFFF200001F009F870BDC0460404040010020B40FBFBFBFF10B5244B1B685B0758
:4037800015D5234B5B685B070ED5224B596A042001401F4C62688A4362605A6A82435A629B69002B00D098470420FFF7BFFF174B1B685B0518D5164B5B685B0510D5154B5A
:4037C000596A8022D2001140114842688A434260596A114A0A405A62DB69002B00D098478020C000FFF7A2FF084B1B685B030CD5074B5B685B0304D5064B1B6A002B00D064
:4038000098478020C002FFF791FF10BD10020B40DC000020D0010020FFFBFFFF10B50A20FFF75AFD10BDC04610B500F0A1F810BD10B500F03BF810BD10B5054A13688021A3
:4038400009060B431360FFF7E9FFFFF7EDFF10BD0000254010B5064B1B78002B04D1FFF7E7FF0122024B1A70FFF7E6FF10BDC046F8010020014B18687047C046400325400F
:40388000024B1B681F2018407047C04608032540044B1B681F221340082BF9D0024B18607047C046080225404002254010B51B4A1B4B1A6000241B4B1C601B4A1B4B1A6025
:4038C0001B4B1C4A136007211B4A11601B4A146006391B4A11601B4A13601B4B1C6004221A4B1A600A20FFF701FD03210A20FFF71BFD17490A20FFF705FD164B1C60164BA4
:403900001C60164B1C60164B1C60164B1C60164B1C601A68154B1A8010BDC0460B000002000025404000254001000A004800254007000080000325400403254010032540A6
:4039400044002540000225400402254050002540D5470000880E2540C80E2540480F2540080F2540C80F2540880F25400002002005490B68F0229343603A13430B60034BE1
:403980001A88034B1A6070470002024000020020880F254010B5FFF773FF002802D0FFF769FF01E0064B1868064A1368D821890011601B02D82292021340184310BDC04663
:4039C00040032540C00F254070B50500002402E0FFF75EFF0134285D0028F9D170BDC046044B1B68002BFBDB0002034B1843014B18607047000001404100008010B5064A79
:403A000013680724234000021843CB00FF2119400143116010BDC04604030140054B1A6801210A431A601B68194201D1012000E00020704704002F4010B50E4A0E4B1A6066
:403A4000FFF7ECFF1D20FFF747FC0C4A116801230B43136090235B0100E0013B002B03D0064A1268D207F8D5002B01D1012000E0002010BD0110000000002F4010002F40B8
:403A800003B2002B0DDB094A1168094B0B400004034313601268074B1340984203D0012002E0022000E000207047C04614002F40FFFF00800000FF7F002809D10C4B19680F
:403AC0000C4A0A401A601B68DB040CD501300DE0074B1A68802149010A431A601B680B4203D1012002E0002000E000207047C04614002F40FFEFFFFF70B5841EE4B20D2C3C
:403B000035D88C1EE4B2052C03D9002B31D1012931D1032A31D8904231D3914231D31C4D2C68240AE4B20F26B44320432E68194C3440000204432C602C686040F0242401EE
:403B4000204220D1002B00D002234901C9B29200D2B2114319430E4A1368EE2083430B4313601368034099420FD0ED380EE002200CE002200AE0022008E0022006E0022006
:403B800004E0022002E0012000E0002070BDC04614002F40FFF0FFFF002809D10B4B1A6810218A431A601B6819420BD001300CE0064B1A6810210A431A601B68194203D1B4
:403BC000012002E0002000E00020704714002F40002809D10B4B1A6801218A431A601B6819420BD001300CE0064B1A6801210A431A601B68194203D1012002E0002000E0DE
:403C00000020704714002F40054B18601B681B041B0C984201D0012000E000207047C04604002F4010B503785B01204A944663441F4A41680A431A6003785B01634419683E
:403C40001C4A11401C4A44682240914224D182681A6103785B0163441A6981688A421DD1C2685A6103785B0163445A69C1688A4216D1012252429A6103785B0163449A6913
:403C800001320FD10022DA6103785B016344DB69002B09D0012008E0012006E0012004E0012002E0012000E0002010BDA0002F40800080007F007F007FFF7FFF10B503787F
:403CC0001B01104A944663440F4A41680A431A6003781B01634419680C4A11400C4A4468224091420AD182685A6003781B0163445A6883689A4203D0012002E0012000E04A
:403D0000002010BD20002F4008008000F7007F00F7FF7FFF70B500240AE063001B199800104B1818FFF7CAFF002805D10134E4B2072CF2D9002500E00125002D0BD00FE000
:403D4000230108486030C018FFF76CFF002806D10134E4B200E000240F2CF1D900E00125280070BD34970000002809D10C4B19680C4A0A401A601B689B040CD501300DE0F8
:403D8000074B1A68802189010A431A601B680B4203D1012002E0002000E000207047C04614002F40FFDFFFFF10B580221206334B1A60334A136801218B431360F0231B0258
:403DC00000E0013B002B03D02D4A1268D207F8D4002B49D01D20FFF789FA2A491D20FFF791FA03211D20FFF79FFA1720FFF748FE002819D1FFF760FE002817D1FFF7B4FF66
:403E0000002815D10023012201210C30FFF774FE00280FD1FFF7C0FE00280DD1FFF7D8FE00280BD001230AE0012308E0012306E0012304E0012302E0012300E00023002B53
:403E400014D1FFF767FF002812D10F48FFF7DCFE00280FD10A4B1A6807218A431A601B68194209D0013008E0012006E0012004E0012002E0012000E0002010BD00042F4041
:403E800010002F40B53E00000110000010B5084B1B78002B02D1FFF787FF00E00020002804D10122024B1A70FFF7C6FD10BDC046020200207047C046F8B54F464646C0B4B4
:403EC000040001200023984691E04C4B1B6832041A427AD12379002B01D1002701E08027BF036379002B07D12B01454A94466344226852055A6009E080235B031F432B01FC
:403F00003F4A944663442268D2005A60A379072B03D81B041F43B94603E080231B031F43B946E379002B03D004234A461A43914600232AE0032B13D92801324A9446604404
:403F4000026894465907CA1AD1003831FF228A4067469743E268D25C8A403A43026012E02801274A94466044826894465907CA1AD1001831FF228A4067469743E268D25CD6
:403F80008A403A4382600133DBB2A279934201D2072BCFD91D20FFF7A9F92B01184A94466344194A4F4617431F60227A002A04D0196803220A431A6003E0196801220A43EA
:403FC0001A601D20FFF788F900207600F6B2002807D00135EDB201E001260025072D00D873E7002806D043460133DBB298464346022BF1D90CBC90469946F8BD08002F409F
:4040000020002F402C002F4008008000024B1B68012018407047C04604010440024B1868400801231840704704010440024B1868800801231840704704010440024B186850
:40404000C0080123184070470401044004490A68D2B202239A434000184010430860704700040440024B186840080123184070470404044010B50B20FFF72EF910BDC046F1
:4040800010B500F01DF810BD10B5044A1368802109060B431360FFF7EDFF10BD0000264010B5064B1B78002B04D1FFF7E9FF0122024B1A70FFF7E8FF10BDC04604020020FE
:4040C00010B50024184B1C60184A194B1A60194B194A1360194A1460194A1460194A1360194B1C600B20FFF701F903210B20FFF71BF916490B20FFF705F9154B1C60154BEC
:404100001C60154B1C60154B1C60154B1C60154B1C601022144B1A70144B1C80144B1C60144B1C6010BDC0460000264077080080600026400701008000032640040326406B
:40414000100326400002264004022640E9470000C80E2640880E2640480F2640080F2640C80F2640880F2640200500202C050020300500204405002010B50E4A13685B00CF
:404180005B08136000230C490B600C490B600C4804680C49214001600B490B600B490B6010210B4B19701368802109060B43136010BDC04600002640680026406C0026405C
:4041C00060002640FF5CFFFF880F2640C80F26402005002010B504000368002B09D00120FFF762F92368013B2360002B03D0002003E0002001E08020000610BD10B50028CB
:4042000039DBC023034208D00022284B1A601032274B1A70002310243DE0C3070FD5244B1B781B072BD5234B1B685B0001D5002300E0012310211E4A117001242BE0C3057C
:4042400020D4830722D4C30605D51022184B1A70002300241FE0164B1B781B0719D5144B1B78DB0701D5252200E02422104B1A70002300240FE00123802424060BE001238B
:40428000012408E001238024640004E00023022401E000230024012B02D1FFF76DFF02E0054A064B1A60200010BDC04668002640200500206000264017030000000F2640B8
:4042C00070B582B004000D001600244B1B78102B40D10B20FFF70AF8214B1B68DB0734D4FA239B005E43019600221E4B1A601E4A1E4B1A601E4A1F4B1A606400FF231C4088
:40430000002D03D12422154B1A7004E02522134B1A7001231C43184B1C600222174B1A60124B1C680823FF3320001840144B1B68C02423401843040001A8FFF74BFF20434D
:40434000EED0FFF75BFF040000E008240B20FEF7C3FF00E00424200002B070BD2005002064002640080F264017030000000F2640ED0F0000C00F2640400226406800264074
:40438000400F264010B582B0104B1B789B061AD5FA239B00584301900D4B1B689B0601D5182200E010220B4B1A600B4B18681223FF331840040001A8FFF70CFF2043F4D017
:4043C000FFF71CFF00E0042002B010BD200500206400264068002640000F264010B582B00D4B1B789B0613D5FA239B00594301910A4B18600A4B18680823FF33184004002B
:4044000001A8FFF7E7FE2043F4D0FFF7F7FE00E0042002B010BDC0462005002040022640000F2640F0B583B004000D00164B1B789B0626D5FA239B005A430192134B1868BC
:404440000223FF3318400700114B1B6804261E4001A8FFF7BFFE384333000343EED0002E05D00C4B1B682B700B4A094B1A60FFF7C5FE002806D1002C04D10422074B1A60CB
:4044800000E0042003B0F0BD20050020000F2640C00F264040032640ED0F00006800264010B50B20FEF722FF074B1C88A2B21400064B1B789B0602D504231A4394B20B2081
:4044C000FEF70AFF200010BD2C0500202005002010B50B20FEF70AFF044B1C88A4B200221A800B20FEF7F8FE200010BD2C050020054B1B682022134000D008230122134318
:40450000024A13607047C0466400264068002640F0B583B001900C0017001D00002917D02A4B1B78102B08D10B20FEF7DFFE284B1B68DB070ED508260FE0244B1B78602B30
:404540000AD1244A138808218B431380002604E0042602E0002600E00426002E2FD128221A4B1A7000231C4A13601C4A13601C4B1F601C4B1C60EAB21B4B1A70019B5C00FE
:40458000FF231C40134A138802218B4313804023164A13601649174A11601421FF31164A1160164A1360EB0704D5FFF7A1FF144B1C6004E0124B1C600222124B1A600B2072
:4045C000FEF78AFE300003B0F0BDC04620050020640026402C05002034050020440500203C0500204005002024050020800F264017030000000F2640080F2640880F264079
:40460000400226406800264004490A687F231A40C301D8B2104308607047C04600020440024B1868C0090123184070470402044010B500F075F810BD10B500F01DF810BDA4
:4046400010B5044A1368802109060B431360FFF7EFFF10BD0000274010B5064B1B78002B04D1FFF7E9FF0122024B1A70FFF7E8FF10BDC0460C020020154A164B1A60002367
:40468000154A13601549164A1160164A16490A6007201649086016490B6006381549086015490A60154A13600421154A1160154A1360154A1360154A1360154A1360154ADE
:4046C0001360154A13601268144B1A807047C0460B000002000027404000274001000A00480027400700008000032740040327401003274044002740000227400402274016
:4047000050002740880E2740C80E2740480F2740080F2740C80F2740880F27400E02002005490B68F0229343603A13430B60034B1A88034B1A607047000702400E020020F4
:40474000880F274070B50500002402E000F0ECF90134285D0028F9D170BDC046000000000230800803D00138FDD1C046C046C0467047EFF3108072B6704780F310887047E7
:4047800070B50400FFF7F5FF0500102C05D8104A136803218B43136016E0202C07D80C490B6803229343023A13430B600CE0302C07D807490B6803229343013A13430B60CC
:4047C00002E00020FEF79CFD2800FFF7D6FF70BD3000104010B5034B1B68002B00D0984710BDC046FC01002010B5AF4B1B68002B00D09847AD4B1B68DB0702D50022AC4BC0
:404800001A60AC4B1B789B0628D5AB4B1B68DB0507D5AA4A1188C0239B000B431380012300E00023A44A1268D20706D5A34A118890239B000B4313800123002B0FD09D4AA8
:404840001278D20701D5012200E002229B49088802430A800021974A117000E00023954A1278920600D417E1934A1268D20611D51022934B1A608F4B1B78DB0701D501235A
:4048800000E002238D4A11880B4313801022894B1A7007E1874A1278120720D5864A126892070AD50222864B1A60844A118888239B000B431380012311E07E4A1278D207C2
:4048C00003D525217B4A117009E02421794A11707C4A1268002A02D014397B4A1160754A1278520700D4AEE0724A1278D20749D5764A1268120727D5754A1268754909682B
:404900001F240C40744909686418141B082C09D8002C16D1714A1168714B0B401360012308340EE008240CE06B4A11686D48006841186D480068C0B208701168013111600C
:40494000013C002CF0D119E0604A1268520715D5614A116863480068411863480068C0B208701168013111601168594A1268914203D204215D4A116000E001235C495D4A39
:40498000116060E04C4A1268920726D502224C4B1A6059490B681D321A40096880231B020B4000D001239B18544A1168CB1A13601268534B1A60414A118884239B000B43D7
:4049C0001380504B1A68802149020A431A6019684D4A0A401A60012335E04C4A1268D2061ED427E0454A1168364A126891421DD2344A1268013A414909688A4204D1402269
:404A000043490A6030490A603C4A11684148006841180978C9B240480160116801311160354A12681F210A40082ADBD11021384A116008E0354A1268520604D52F4B1A68C0
:404A40002F4B1A600123002B2CD0244A1168244B0B4013600023314A13601B4A1360304B1B789B070ED5134B1B78DB0701D5092300E00A23114A11880B43138060220D4BD6
:404A80001A700FE0274B1B689B0601D5182200E01022164B1A6005E0064B1B78DB0601D4FFF76AFB10BDC046080200208C0E2640880E2640200500200C0F26402C05002000
:404AC000000F26403C050020880F2640CC0F264038050020080326403005002060002640FFFEFFFF280500204003264068002640ED0F0000C00F2640080226403405002000
:404B00004405002004022640FFFFFEFF8C0F2640800F26404005002040022640C80F26402405002064002640044B1B681F221340082BF9D0024B18607047C04608022740FD
:404B400040022740002243088B4274D303098B425FD3030A8B4244D3030B8B4228D3030C8B420DD3FF22090212BA030C8B4202D31212090265D0030B8B4219D300E0090AB6
:404B8000C30B8B4201D3CB03C01A5241830B8B4201D38B03C01A5241430B8B4201D34B03C01A5241030B8B4201D30B03C01A5241C30A8B4201D3CB02C01A5241830A8B424B
:404BC00001D38B02C01A5241430A8B4201D34B02C01A5241030A8B4201D30B02C01A5241CDD2C3098B4201D3CB01C01A524183098B4201D38B01C01A524143098B4201D3BF
:404C00004B01C01A524103098B4201D30B01C01A5241C3088B4201D3CB00C01A524183088B4201D38B00C01A524143088B4201D34B00C01A5241411A00D2014652411046CC
:404C40007047FFE701B5002000F0F0F802BDC0460029F7D076E7704703460B437FD4002243088B4274D303098B425FD3030A8B4244D3030B8B4228D3030C8B420DD3FF2206
:404C8000090212BA030C8B4202D31212090265D0030B8B4219D300E0090AC30B8B4201D3CB03C01A5241830B8B4201D38B03C01A5241430B8B4201D34B03C01A5241030BC2
:404CC0008B4201D30B03C01A5241C30A8B4201D3CB02C01A5241830A8B4201D38B02C01A5241430A8B4201D34B02C01A5241030A8B4201D30B02C01A5241CDD2C3098B42C0
:404D000001D3CB01C01A524183098B4201D38B01C01A524143098B4201D34B01C01A524103098B4201D30B01C01A5241C3088B4201D3CB00C01A524183088B4201D38B0019
:404D4000C01A524143088B4201D34B00C01A5241411A00D201465241104670475DE0CA0F00D04942031000D34042534000229C4603098B422DD3030A8B4212D3FC2289015E
:404D800012BA030A8B420CD3890192118B4208D3890192118B4204D389013AD0921100E08909C3098B4201D3CB01C01A524183098B4201D38B01C01A524143098B4201D366
:404DC0004B01C01A524103098B4201D30B01C01A5241C3088B4201D3CB00C01A524183088B4201D38B00C01A5241D9D243088B4201D34B00C01A5241411A00D201466346A0
:404E000052415B10104601D34042002B00D54942704763465B1000D3404201B5002000F005F802BD0029F8D016E770477047C0469E2110B5C905041C02F0C8F8002803D119
:404E4000201C00F009FB10BD9E21201CC90500F07DF900F001FB80231B069C466044F2E7F8B54A02430244004E00C50F240E28009B09360EC90F92098D4259D0A01B0028C3
:404E800000DC8DE0002E1AD1002A00D079E05A0704D00F221A40042A00D004335A0138D50134FF2C00D189E028009B015B0AE4B25B02E4055B0A2343C0071843F8BDFF2C74
:404EC000E5D08021C9040A431B2800DD89E016002021C640081A8240511E8A4132439B1A5A0114D59B019E09300002F079F805388640844265DC041B330020200134E34006
:404F0000041BA640721E964100243343BFE75A07BFD1DF082800FF2C2FD1002F00D187E08022D20313003B435B025B0AFF24BFE7A11B002949DD002E29D0FF2CA7D0802626
:404F4000F60432431B2900DD8DE017002026CF40711A8A40511E8A413A439B185A01D6D50134FF2C64D0012276491A405B080B4013438CE7031ECAD100207B025B0AE4B268
:404F800096E701380028AAD0FF2C9DD17FE7002A00D17CE701390029DFD0FF2CD2D176E7002820D1601CC0B2012853DD80279E1AFF0437402FD0D61A0D0095E72800002303
:404FC00076E7614B241A334061E700294DD1611CCEB2012E2FDDFF292AD09B185B080C0055E701227BE7002C1BD1002B5BD0C04300280CD0FF2E7ED01B2800DD92E01D008C
:405000002024C540201A8340581E83412B43D31A34000D0064E7002E00D065E700200024ABE7FF2E67D08024E40440422343E3E7FF2400233CE7002C61D1002B7ED0002ADD
:4050400000D124E79B185A0100D460E73E4A0C0013401CE7002C1ED1002B2FD1002A66D013000D0013E7012277E7002C1FD1002B5AD0C94300290BD0FF2E50D01B295FDCB3
:405080001F002024CF40611A8B40591E8B413B439B18340062E7002B1CD1002A4AD013000D00FF24F3E6130034000D00EFE6FF2E35D08024E40449422343DFE7002A00D136
:4050C000E5E68027981AFF04074000D152E7D31A0D00DCE6FF24002A00D1D8E68020DB08C003034204D0D208024201D113000D00DB00FF24CBE61300FF240D00C7E6002B67
:405100000DD0FF24002A00D1C1E68021DB08C9030B42EDD0D2080A42EAD11300E8E71300FF24B4E6012372E713003400AFE60027002022E780270020FF03F1E61300A6E6F8
:405140000123A5E7FFFFFF7DFFFFFFFBF8B54A024E0043024400240EC50F9B09360EC90F9209FF2E00D183E001204140A01BA9425CD0002800DC95E0002E1CD1002A00D079
:4051800081E05A0704D00F221A40042A00D004335A013BD50134FF2C00D191E001209B015B0AE4B205405B02E4055B0AED0723432B431800F8BDFF2CE3D08021C9040A43B6
:4051C0001B2800DD90E016002021C640081A8240511E8A4132439B1A5A0115D59B019E09300001F0FDFE0538864084426CDC041B330020200134E340041BA640721E96416F
:4052000000243343BDE70D005A07BCD1DF0801231D40FF2C33D1002F00D190E08022D20313003B435B025B0AFF24BCE700284FDD002E2ED0FF2CA4D08025ED042A431B2839
:4052400000DD97E016002025C640281A8240501E824132439B185A01D5D50134FF2C6DD001227B481A405B08034013430D0088E7002A00D07AE777E7031EC5D100257B02B0
:405280005B0AE4B28FE701380028A4D0FF2C97D177E7002A00D174E701380028DAD0FF2CCDD16EE7002821D1601CC0B2012858DD80279E1AFF0437402FD0D61A0D008FE787
:4052C00001231D4000236EE7624B241A334058E7002851D1601CC6B2012E33DDFF282DD09B185B0804004CE7012274E7002C1AD0FF2E1FD08024E404404223431B2800DDE6
:4053000096E01D002024C540201A8340581E83412B43D31A34000D005EE7002E00D05FE700250024ABE7002B44D0C0430028F0D0FF2EE3D11300FF240D0022E70D00FF24D3
:40534000002330E7002C5DD1002B7DD0002A00D117E79B185A0100D456E73E4A040013400FE7002C1ED1002B2FD1002A65D013000D0006E701226DE7002C1FD1002B59D09B
:40538000C04300280BD0FF2E4FD01B285EDC1D002024C540201A8340581E83412B439B18340058E7002B1CD1002A49D013000D00FF24E6E6130034000D00E2E6FF2E34D036
:4053C0008024E40440422343DFE7002A00D1D8E68027981AFF04074000D14DE7D31A0D00CFE6FF24002A00D1CBE68020DB08C003034204D0D208024201D113000D00DB004A
:40540000FF24BEE6002B10D0FF24002A00D1B8E68020DB08C003034203D0D208024200D11300DB000D00FF24ABE61300FF24A8E601236EE713003400A3E6002700251EE784
:4054400080270025FF03E9E613009AE60123A6E7FFFFFF7DFFFFFFFB4302590A4300C20F1B0E00207E2B0EDD9D2B0DDC802000040143952B0BDC9620C31AD9400B005842AF
:40548000002A00D118007047034BD018FBE7963B99400B00F3E7C046FFFFFF7FF8B556465F464D464446F0B40F00FD0FAA4609037C002E005F00450F490A7F0D2943C500C6
:4054C0001803BC46400A570F640DDB0F3843D2009A4500D1AAE06646A61B002E00DCFFE06346002B39D10300134300D0D9E06B0709D00F232B40042B05D02B1DAB42AD41D8
:405500006D4249191D000B0200D482E0CA4B01349C4200D1FEE00A005646C84BED081A405007640552020543120B640D002112030B0D1B056405120B1A436308C04CF6076C
:4055400014401C43640064083443280021003CBC90469946A246AB46F8BDB74B9C42C6D080231B041843382E00DDEBE01F2E00DD1EE120239B1B9C4603006746BB4098467F
:4055800013004746F3403B436746BA40571EBA4113430200F240EB1A9D42B6411D008A1A7642911B0B0231D54A02560A002E00D1B4E0300001F014FD0300083B1F2B00DD08
:4055C000B5E020222900D21AD1409E400A009D4032439C4200DDB1E01C1B631C1F2B00DDD5E0202114002800C91A8C40D8408D400443DA40681E854111002543002476E7DE
:405600004146314300D134E2310045466B0700D06FE756464807ED08C9080543864B9C4235D00A036405120B640D7FE76346E31A9B46002B00DC8BE06746002F3CD07E4F6F
:40564000BC4200D153E780273F0438435B46382B00DCF7E00243501E82410020D2B253194218AB4289411D00494289180B02CDD5714B01349C4200D13DE101206F4A6B086B
:405680000A4028401843D507054351082FE72B000B4300D1CBE180231B030B431A03120B44E7013E002E6DD1AE1AB5429B41091A5B42C91A350075E70700174300D116E737
:4056C00001235B429C46E3445B46002B00D0E0E0AA18AA429B4109185B4259181500C5E7002E75D1661C7605760D012E00DCF3E0AE1AB0464545BF410E1A7F42F61B3702BD
:4057000000D48FE0551BAA42B641411A76428E1B9A464BE756460022002507E7280001F05FFC20300300083B1F2B00DC49E72A002838824000259C4200DC4DE73F49E41AEF
:405740001140D4E60243501E8241D3B2002222E7002B00D0F3E0631C9C465B055B0D012B00DC9FE0344B9C4500D1C3E0AA180918AA42804140424118CD0752081543490864
:405780006446B4E62C4B9C4200D0ECE6AFE611001F3CE1400C00202B00D17FE04021CB1A9A4015436A1E95410021254300242DE733000700203BDF403B00202E70D040278A
:4057C000BE1BB0400243501E824113430022E2E6002C4FD0184CA44500D1ABE08024240476422143382E00DDDFE01F2E00DD43E12027BC1BA1460C004F46BC40A0462C004A
:405800004746F4403C434F46BD406F1EBD41F1402C43151BAA429241411A5242891A64469A46BFE641464546314300D0BEE6002600240025F2E6C046FF070000FFFF7FFFF2
:40584000FFFF0F801F2B59DC2027FF1ABC46070063469F405B46B9461700DF40B8464F4643461F4363469A40531E9A415B463A43D840F4E60C002C435CD0F643002E55D1C4
:40588000551BAA42A441411A6442091B9A46644688E6964FBC4200D0D8E628E6002280E700208FE70B002B43002C00D0C2E0002B00D101E10300134300D118E6AB18AB421F
:4058C000B6410918764271180A0200D409E1884A1D00114064460AE6002C5BD10E002E4300D08AE00100114300D1C2E0010015009A46FCE56446002100258FE620235B42B6
:405900009C46DC4463460700DF405B46BC46202B00D1ACE040235F46DB1B98400243501E8241634613431A00002098E66F4CA44500D057E70100150064469A46D7E5002C0E
:4059400039D10C002C436ED0DB43002B1AD0674CA44568D0382B00DDA4E01F2B00DDAEE020240F00E41AA740B9462F00DF40B846A3464F46444627435C46A5406C1EA541F8
:40598000D9403D43AD1895429B4109185B42591864466BE60C002C4315D1010011437BD0010015009A46514CA1E50D43691E8D410021ECB22DE74D4CA44534D080242404C8
:4059C0005B422143C6E7040014434ED0ED084C072C438025C9082D03294208D0C6082E4205D1D208410711430C009A463100620FC900E50011433D4C79E50600164300D1AF
:405A000075E5AE1AB0464545BF410E1A7F42F61B370200D4F4E5551BAA42B641411A7642891B9A4663E50100150064465FE5002200257BE5002B3BD00300134315D0ED089E
:405A40004B072B438025C9082D03294207D0C4082C4204D141070B002100D2081343C9005A0F1143DD00214C41E5204C3FE5002054E700260025D1E534000F00203CE74023
:405A80003C00202E2BD04027BE1BB1400D43691E8D4100212C43BCE6802100260903134C0025BBE50D43691E8D410021EDB269E7010015000D4C1AE50100150017E51C0011
:405AC0000F00203CE7403C00202B0CD04027FB1A99400D43691E8D410021254352E70021D4E71D0092E50021F3E7C046FF070000FFFF7FFFF0B556464D4644465F46F0B45B
:405B00001D000E034C00CB0F87B0070092468146360B640D98466AD06D4B9C4235D08022430F12041343F6001E43C3009946694B00279C460023644402932B0368001B0B9D
:405B4000ED0F51469B46400D009500D178E0604B98426CD05B46DA004B0F802109040B4313439B465346D9005A4B9C46002360444246201A6A40924601901F430F2F00D9CF
:405B8000B0E05548BF00C0598746374300D088E0002399460233082700260293CDE74346B34649460093029B009A9246022B00D0BFE1002153460122002689461A40444B81
:405BC000002136030C0D2405360B2643434C1B0526401E437600D207760816434846310007B03CBC90469946A246AB46F0BD330003434FD0002E00D1BCE1300001F0F0F9DC
:405C000003000B3B1C2B00DDADE11D220100D31A08393A008F408E40DA40B9461643304B00279C46002360444442029385E753465A4613432CD1002300219B46023397E77C
:405C40000B4320D05B46002B00D19EE1584601F0C7F903000B3B1C2B00DD8FE102005946083A91408B461D21CB1A5146D9400B0059460B4351469B469140194B9C4660441B
:405C80004042002374E7002300219B4601336FE703236DE70023994601330427002602934BE703230C27029347E70122D51A382D00DCB0E153461A40002100230026894641
:405CC0007EE700238026994600223603004B77E7FF07000001FCFFFF94980000FFFF0F80F30300005E4500D972E100D16DE1019B4D46013B01930023340002935B461E0249
:405D00000B0E1E430B020393330C994633041B0C494620000093FEF715FF009B370043430600494620009846FEF792FF2C0C09040C43A04509D9E419731EA74200D95CE126
:405D4000A04500D859E1023EE4194346E41A49462000FEF7F7FE0300009A80465343494620009B46FEF774FF2A040904120C0A4393450DD94346D219013B974200D93AE1FD
:405D8000934500D837E102235B429C46D219E0445B46D21A4346360433439B460399180C0B0C1D00059309045B46090C0C001B041B0C4443049159436B4368431B190D0CC2
:405DC000EB189C4203D980246402A44660441C0C09041B04090C20185D18824200D2DEE000D1D7E0161A029B9C465D1BAC459B415B42F61AB74200D106E149463000FEF756
:405E0000A1FE009B04004343494630009846FEF71FFF2E0C09040E43B04509D9F619631EB74200D9F3E0B04500D8F0E0023CF6194346F31A494618000293FEF783FE009B7D
:405E400006004343494602989846FEF701FF2D0409042D0C0D43A84509D9ED19731EAF4200D9D6E0A84500D8D3E0023EED192404210043463143049E059A3000ED1A0B0462
:405E80000C0C1B0C58436643534354439A19030C9B189E4203D980225202944664441A0C00041B04000C14191B18A54250D34DD001231943964A019B94466344002B00DC29
:405EC000F3E64A0709D00F220A40042A05D00A1D8A42894149428B4411005A46D20108D55A468C4B1A4093468022D2009446019B6344894A934200DD5BE65A46C9085007E0
:405F000008435602514601225B058146360B5B0D0A4055E680231B031E4211D05A461A420ED15E461E433603360B2A0089467B4B46E6032B00D1E1E0012BBBD11A40BBE6F5
:405F40001E433603360B4246744B39E6002BB1D07D194A1EAF4252D91100A542A8D1039A9A42A5D1A6E703003E00283B9E400023994654E601F034F8203041E60300524640
:405F8000283B9A400021934677E6504601F028F820305EE6029B0026AB4200D323E7039E0299B44661448846B045B6415B467642F619B218013B0291974213D290424FD838
:405FC00000D18EE0161A9B460DE7894500D28EE674084B46F60735005B081D434B46DB0702938BE69742EDD10399029CA142E5D93E1A9B46F7E69846CAE61E00A5E6AC4221
:406000003ED874D0110053E70121494252E71C000EE71E002BE71F2D3CDC20230A0058465B1B9840EA4099400243481E81415E461143EE404B0709D00F230B40042B05D0B5
:406040000B00191D99429B415B42F61833023CD55346012200211A40002601238946AFE502235B429C46039CE344A446029B63449846A045B6417642F6190293B218B1E644
:4060800003988A1E41008142B6417642F619AD19039161E71F225242D31A5A46DA401300202D29D040225846551BA8400143481E814107200B4318400026002809D00F227B
:4060C00000261A401900042ABBD10B0070077602360BDB0803439946012253461A4000236EE502998D42BBD89B4600267BE603989842C5D3110032E70020D7E780265B46BD
:4061000036031E433603360B009A8946034B57E5FF030000FFFFFFFEFE070000FF070000F0B55F4656464D464446F0B40D0399464E002B0B87B00700924680469B46760DF6
:40614000CC0F002E69D06D4B9E4235D05B468022DD001204430F13432B439B46C3009846674B00279C460023664401934A4615035000D20F53462D0B400D914600D176E061
:406180005E4A90426CD080225B0F120413435C4AED0094461D4353460022DB00604449463618701C6140029017430F2F00D9AFE05448BF00C759BF465B461F4300D088E053
:4061C00000239B469846023308270193CEE74946022A6AD0032A00D109E2012A00D0BBE111400022002300259046CCB200212D030A0D12052D0B1543434A1B0515401D431B
:406200006D00E4076D0825434046290007B03CBC90469946A246AB46F0BD034352D05B46002B00D18AE1584600F0DAFE03000B3B1C2B00DD7BE11D22D31A3A0001005D46E7
:40624000DA4008398D4013008F402B439B46B8462E4B00279C46002360444642019385E752462A432CD100250023022297E752462A4321D0002D00D154E1280000F0B0FE1B
:4062800003000B3B1C2B00DD46E11D21CB1A51460200D9405346083A954093400D431B4A944660444042002279E7012400220C40124B0025904699E70025002301226EE790
:4062C00003226CE700239B4698460133042701934CE703230C27019348E700238025984600242D03054B81E75D464346019A6FE75D4643462100019A6AE7C046FF070000EE
:4063000001FCFFFFD4980000FFFF0F80F30300004246120C91461A0C9446424617044A461B041B0C5A43604690464A4642431000039262461C003F0C7A437C434244019206
:40634000220C9246019A5244904506D98246802040028046C24450460390100C049048462404240C1204121905922A0C2D042D0C68432C00824648467C4350438146200C13
:406380008046574357444744BA4503D9802040028046C144380C3F04B84648442404240C01900498A044404404905846000C814658460404200C8246070048465F434C4669
:4063C0004343604660436446834650464443380C8446E4186444A34203D980235B029C46E34448463F04230C3F0C2404E419574668436F4384464D46504655434243380C04
:40640000814662444A445B44944503D9802040028446654403983F04834604983F0C8446E344C345804140428246100484460198674484466744A344BC46A345A4419946FA
:40644000D44464428742BF41D4458041E144A04699459B417F424042C8440743120CBA18A045A4415F423B0064422343D71843467D19DB0D6D021D435B465A02059B1A43FC
:40648000531E9A415B46DB0D1A4343465B021343EA0107D501225C0813402343EA07029E13436D08574AB218002A4BDD580709D00F201840042805D0181D98429B415B4206
:4064C000ED180300E80104D54F4A15408022D200B2184E48824200DDE7E60124DB08680718436D02530580462D0B5B0D0C407DE6802259461203114208D0154206D11543ED
:406500002D0398462D0B4C46414B6FE65D4615432D032D0B3E4B69E603005546283B9D400023BCE6504600F05BFD2030A8E60300283B9F400023BB46984689E600F050FD15
:40654000203073E60124A61A382E07DD00220C4000230025904649E6029EA3E71F2E20DC20222C001800921BF040944093400443581E83411C43F540630709D00F2323401E
:40658000042B05D023001C1D9C4292415242AD182B021FD5012400220C4001230025904624E61F202C004042821AD440202E1CD04022961BB5402B43581E83410720234380
:4065C00018400025002809D00F2200251A401C00042AD8D1230068076D022D0B0124DB08034398460C40002300E60025E3E780220124120315432D0398462D0B0C40044BBC
:40660000F4E5C046FF030000FFFFFFFEFE070000FF070000F0B557464E464546E0B40E001100F20F9246C500420F180337037400400A4E0F7F0A3043CF4E17435A00640DC2
:40664000520DDB0FC900B24200D1E5E001267340A61AB446534500D1AFE0002E00DC0DE1002A3AD103000B4300D0E4E06B0709D00F232B40042B05D02B1DAB42AD416D4222
:406680007F191D003B0200D488E0BB4B01349C4200D110E13A00B94B51461A4001235007ED08520264050543120B640D0B400021280012030D0D120B64052D051543620862
:4066C000AF4CDB072C401443640064081C4321001CBC90469946A246F0BDA74B9C42C5D080231B0418436346382B00DDFDE01F2B00DD30E1624620239B1A02009A406646E0
:4067000090460A009940F24046464B1E99413243114363460200DA40691A8D429B410D00BA1A5B42D71A3B0235D57A02530A98464346002B00D1C4E0404600F051FC030087
:40674000083B1F2B00DDC5E020222900D21A4746D1409F400A009D403A439C4200DDC0E01C1B631C1F2B00DDE4E0202114002800C91AD8408C408D400443DA40681E854118
:4067800017002543002471E7424663461A4300D14CE2674645466B0700D069E7012351467807ED08FA080B40054373498C4238D012036405120B640D79E7002E00DC9AE041
:4067C000002A47D06C4A944200D14FE78022120410436246382A00DC08E10143481E81410022C9B24919D219A942BF410D007F42BF183A0200D442E15F4A0134944200D14D
:406800004EE101205D4A69083A4028400843D507054357089A4629E706000E4300D017E714E72900114300D1F9E1802109030A431203120B3BE701235B429846C44463466A
:40684000002B72D1691A8D429B413F1A5B42FF1A0D0068E702000A4300D107E7012252429046C4446246002A00D0E6E06918A942B6413F187642F7190D00BAE7002E00D0D8
:4068800080E0621C5205520D012A00DCF9E06A1A91464D45B6413A1A7642921B9046120200D499E04D1BA9428941C71B49427A1A90469A463CE75246012300251340002243
:4068C000F5E6280000F08CFB20300300083B1F2B00DC39E72A002838824000259C4200DC3EE7264FE41A1740C0E60143481E81410022C9B210E7002E00D0F1E0621C94465B
:406900005205520D012A00DCA0E01B4A944500D1C5E06918A94292413F185242D2194908D5070D4357086446A0E6134B9C4200D0D9E69BE611001F3CE1400C00202B00D144
:4069400080E04021CB1A9A4015436A1E95410027254300241FE763460200203BDA406346202B71D0402366469B1B98400143481E814111430022CFE6FF070000FFFF7FFF1D
:40698000FFFF0F80002C48D0CA4CA24200D1A2E07442A1468024240427434C46382C00DDDBE01F2C00DD44E14E462024A41B3E00A640A246B0464C462E00E640B446464606
:4069C000644626435446A5406C1EA54134002C434D46EF400D1B28E04A4643464D461A4300D0A5E6002300240025DEE61F2A5ADC66462022921B060096409146B046624601
:406A00000E00D640424616434A4691404A1E9141020060463143C240E4E63C002C435AD0F443A146002C52D14D1BA9428941C71B49427F1A14009A4675E69E4A944200D08C
:406A4000C7E613E600227FE700208FE7002C00D0C8E03B002B4300D10FE103000B4300D104E66918A9429B413F185B42DF193B0200D41AE1904B0D001F406446F6E59A464C
:406A800089E63A002A43002C5CD1002A75D102000A4300D1CAE007000D009A46E6E564460022002581E662460600203AD6406246B046202A00D1B7E040226646921B90401D
:406AC00001434246481E8141114300228AE6794CA24200D061E707000D0014009A46C5E5002C41D13C002C4378D0F443A146002C20D0704CA24271D04C46382C00DDB2E098
:406B00001F2C00DDBCE02026341BA2463C005646B4404E46A0462C00F440A446444666463443A4465446A54064466E1EB54125434C46E7406D188D4289413F184942CF1939
:406B4000140056E6002A2FD102000A4300D184E007000D009A46574C88E53D436F1EBD41ECB200270D1B60E7524CA24236D0744280263604A1463743BEE702000A4300D190
:406B800074E56A1A90464545B6413A1A7642921B9446120200D4F7E54D1BA9428941C71B49427F1A9A4661E502000A433AD0ED087C072C438025FA082D032A4208D0C708D7
:406BC0002F4205D145072C003A009A46C9080C43670FD200E5001743364C47E507000D00140043E53A002A4343D002000A4319D0ED087C072C438025FA082D032A4207D024
:406C0000C6082E4204D147073C003200C9080C43D700620FE50017439A46264C26E50022002544E5234C21E5002049E700230025BBE54C463E00203CE6404C46B446202C3A
:406C400031D040244E46A61BB7403D436C1EA54164462C4300270D1BE7E6802200231203144C0025A1E53D436F1EBD410027EDB260E707000D000F4CF8E407000D00F5E409
:406C80004E463C00203EF440A0464C46202C0ED040244E46A41BA7403D436F1EBD4144460027254346E70027CFE70D0073E50027F2E7C046FF070000FFFF7FFF0B0330B524
:406CC000134D1A0B4B005B0DC90F0024AB4211DD104CA34210DC8024640322430E4CE41A1F2C0CDD0D48C31ADA4013005C42002900D11C00200030BD094BCC18FAE7E04003
:406D0000084CA44663449A4013000343EEE7C046FE0300001D0400003304000013040000FFFFFF7FEDFBFFFF70B5002830D0C317C4185C40C50F200000F052F9174B184AFC
:406D40001B1AD21A1F2A18DD164AD21A9440002224035B05240B5B0D0021100024030A0D1205240B1443104A1B0514401C436400ED0764082C43210070BD210091400A009E
:406D80000B21081AC4405B052403240B5B0DE3E70025002300240022DEE7C0461E0400003304000013040000FFFF0F804200120E511C4302C9B270B55D0AC40F012915DD39
:406DC000E02189008C466D071B0B6244002128000D0D2D052B431C4D52052B40520813435B00E4075B082343190070BD002A15D1002D1FD0280000F0F3F80A281DDC0B233C
:406E00002A001B1ADA4013000200153295400F4A1B03121A52051B0B520DD7E7002D06D080221B0B120313436D07094ACEE7084A0023CBE700220023C8E703000B3B9D4078
:406E40002B000025E3E7C046FFFF0F8089030000FF0700004B0070B55E0D0C03751C640A420F6D052243C90FC4006D0D012D2ADD3B4BF318FE2B1ADC002B42DD8001451E99
:406E8000A841D2001043620F0243500704D00F201040042800D004328020C004104021D00133FF2B03D09201520ADBB201E0FF2300225202520ADB0513435B00C9075B0847
:406EC0000B43180070BD002E07D01443EFD08020D20080040243FF23D7E722430023002A03D00522D208FF2B03D05202520ADBB2DFE7002A32D08020C00302435202520ABF
:406F0000D7E71800173014DB8020000402431E20C01A1F280FDC2500124BF3189D406E1EB5419A402B0013432200C2401A430023ABE70023D5E702256D42EB1A1500DD40A9
:406F4000202809D0084BF3189A401443621E9441220000232A4398E70022F6E70022A8E780FCFFFF82FCFFFFA2FCFFFF8446081C6146FFE71FB500F0BDF8002801D4002187
:406F8000C8421FBD10B500F049F84042013010BD10B500F0AFF8002801DB002010BD012010BDC04610B500F0A5F8002801DD002010BD012010BDC04610B500F057F80028CF
:406FC00001DC002010BD012010BDC04610B500F04DF8002801DA002010BD012010BDC0461C2101231B04984201D3000C10391B0A984201D3000A08391B09984201D3000979
:40700000043902A2105C40187047C04604030202010101010000000000000000430270B542004C005D0AC30F4802120E460A240EC90FFF2A0FD0FF2C11D00120A24200D001
:4070400070BDB542FCD18B420DD0002AF8D12800431E9841F4E70120002DF1D1EBE70120002EEDD1E9E70020EAE7C0464302F0B542005D0AC30F4802440A4800120E000E1C
:40708000C90FFF2A1FD0FF2822D0002A09D16E426E4100280FD1002C0DD10020002D09D005E0002801D1002C01D08B4213D0584201231843F0BD002EF7D0484241410120B8
:4070C00049420843F6E7002DDDD002204042F1E7002CDAD0F9E78242E9DC04DBA542E6D80020A542E6D25842434101205B421843E0E7C0464302F0B542004C005E0AC30F4F
:407100004802120E450A240EC90FFF2A17D0FF2C19D0002A0BD170427041002C17D0002807D048424141012049420843F0BD002C13D08B4214D0584201231843F6E7022065
:40714000002EF3D1E3E70220002DEFD1E1E7002DE5D10020002EE9D0EDE7002DE9D1EAE7A242E8DC04DBAE42E5D80020AE42DDD25842434101205B421843D7E710B5002138
:4071800000F0D2FE10BD10B50A22002100F0CAFF10BD0000014B18687047C046440100200E4B70B500251E000D4CE41AA410A54204D0AB00F35898470135F8E702F0F4FC69
:4071C000084B00251E00084CE41AA410A54204D0AB00F35898470135F8E770BDB49B0000B49B0000B49B0000BC9B0000931E10B50C00222B02D9002008700DE00A2A06D1A3
:40720000002804DA2D2340420B70012100E00021611800F093FF200010BD10B5FFF7E6FF10BD002310B59A4203D0CC5CC4540133F9E710BD03008218934202D019700133CA
