:400000000080002011000000951300009513000010B501F0C7F9C04610B512221D4B1A6001F0EEFC302001F003FC1B4A1B4B1A6000241B4B1C601B4B1B4A1A60882189018A
:400040001A4A11601A4A1A60E8214901194A1160194A1A60194A1460194A1A6080221206184B1A608022D202174B1A604322174B1A60013A164B1A60013A164B1A60164960
:40008000082001F0F9FA082001F0E0FA134B1C6010BDC046300010400600008004010B40000301400000014040FF00800C03014043FF00800803014042FF00800403014093
:4000C00041FF008008010B4000010B4014010140100101400C010140ED1A00000C020B4010B572B600240FE031486200131959000B00411889881A5AC318588800041043EF
:4001000001F042F90134E4B2012CEDD9AA22294B1A609923284A1360EE210902274A1160EE21274A1160274A136099231B04264A1360264A1360264A1360264A1360264AD2
:400140001360264A1360264A117806230B43DBB213700223234A1360312223490A600F202249086022482349086082202249086022482349086023490B60D820000122494D
:4001800008602A202149086021482249086003202149086021302149086021490B6021490A60214A1360FFF737FF01F0DDF810BDB83100000000024000020240000302406D
:4001C000000502400007024000500F4010500F4020500F4040500F4050500F4070500F4000700F400000044008000440000104409204000008010440000204403100C000D7
:40020000080204401802044008030440000404403086010008040440000504400805044000070440080704401807044010B5064C2378002B07D1054B002B02D0044800E0AB
:4002400000BF0123237010BD4801002000000000502F0000084B10B5002B03D00749084800E000BF07480368002B00D110BD064B002BFBD09847F9E7000000004C01002008
:40028000502F0000C00000200000000010B501F0A5FF002801D0002400E0012401F0A6FF002800D1023401F0A9FF002800D1043401F0ACFF002800D10834002C00D10134D1
:4002C000200010BD10B582B0684600F0DFFC00282AD1164802F01EFB154802F01BFB6B460020185E134C0A22210002F0E2FD02F011FB114802F00EFB6B460220185E0A2225
:40030000210002F0D6FD02F005FB0C4802F002FB6B460420185E0A22210002F0CAFD02F0F9FA074802F0F6FA02B010BDB82F0000D02F000088020020DC2F0000EC2F000006
:40034000882F000010B582B0684600F007FE00282AD1164802F0DEFA154802F0DBFA6B460020185E134C0A22210002F0A2FD02F0D1FA114802F0CEFA6B460220185E0A22F4
:40038000210002F096FD02F0C5FA0C4802F0C2FA6B460420185E0A22210002F08AFD02F0B9FA074802F0B6FA02B010BDFC2F0000D02F000088020020DC2F0000EC2F0000C4
:4003C000882F000010B584B002A800F05FFC002823D1684600F0C2FD00281ED1104802F099FA104802F096FA02AB0620185E0E4C0A22210002F05DFD02F08CFA0B4802F018
:4004000089FA6B460620185E0A22210002F051FD02F080FA064802F07DFA04B010BDC04624300000343000008802002040300000882F000070B582B006000D0014000E4858
:4004400002F068FA684600F021FC002812D16B461E805D809C80684600F076FC002809D001F0E8FE43425841C0B201F0D7FE322001F03AF902B070BD5030000070B582B0B0
:4004800006000D0014000E4802F044FA684600F065FD002812D16B461E805D809C80684600F0BAFD002809D001F0C4FE43425841C0B201F0B3FE322001F016F902B070BDD0
:4004C00070300000F0B585B006000D00574802F021FA02A800F0DAFB002800D0A3E0684600F03CFD002800D09DE002ACE6800A2323800A3363800A33A3806B46DD802823D0
:400500006A4613800A3353800A339380484802F001FA484F380002F0FDF90023E05E464D0A22290002F0C5FC02F0F4F9434E300002F0F0F90223E05E0A22290002F0B9FC0E
:4005400002F0E8F93E4802F0E5F90423E05E0A22290002F0AEFC02F0DDF93A4802F0DAF90623E05E0A22290002F0A3FC02F0D2F9354802F0CFF9354802F0CCF9380002F04E
:40058000C9F96B460020185E0A22290002F091FC02F0C0F9300002F0BDF96B460220185E0A22290002F085FC02F0B4F9244802F0B1F96B460420185E0A22290002F079FC1C
:4005C00002F0A8F91F4802F0A5F96B460620185E0A22290002F06DFC02F09CF91A4802F099F9200000F0B0FB002809D001F022FE43425841C0B201F011FE322001F074F8FB
:40060000FFF760FE684600F007FD002809D001F011FE43425841C0B201F000FE322001F063F8FFF78FFE05B0F0BDC046A0300000BC300000D02F000088020020DC2F00004B
:40064000EC2F0000CC300000882F0000DC30000010B562B602F0E8F8FFF718FE0100082000F048F800F026F800F058FE0F4802F051F90F4802F04EF9032202210120FFF7B6
:40068000D9FE062205210420FFF7F8FE012409E0A300E318580000B20100FFF713FFFFF791FE0134052CF3DDFEE7C046A82F0000EC30000010B5FF2001F024FB01F084FA4A
:4006C000084801F013FB084801F010FB074801F00DFB074801F00AFB0021D020400001F01FFB10BD283100003C3100005431000090310000F8B504000D0001F059FD0F2069
:4007000020401A4E30603F212940194B1960194C00252570800108434005E060164FA760164B1B686360200001F00EFC01232370E560A760124B1B686360200001F004FC66
:40074000022323703368DB06FC22D2041343E360A7600C4B1B686360200001F0F5FB01F0EFFA09491D2000F087FFF8BD000400201404002004040020FFFF1F80A0002F404F
:40078000C0002F40E0002F40DD070000124A93780133DBB293709378DBB20F2B02D900220D4B9A700C4B1B78002B0BD00A4A53780133DBB253705378DBB20F2B02D9002259
:4007C000054B5A70044A537891785B1A59424B41DBB213707047C0466401002070B580225201444B1A60444B1B68DA0706D49A0706D45A0706D41B0706D406E0002404E03F
:40080000012402E0022400E003243C4B9A78D2B264013B4B9C4664442368DB0202D46168490D02E06168C90889B2364B500082189000C152314A9178C9B22068000C0F2509
:4008400028404D0069188D005D19A8709178C9B2A5682D0E4800411888001818C5709178C9B2A068000CC0B24D0069188D005D1928719178C9B2A068000AC0B24D00691883
:400880008D005D1968719178C9B2A568EDB2480041188800181885719178C9B2E5682D0E4800411888001818C5719178C9B2E068000CC0B24D0069188D005D192872917884
:4008C000C9B2E068000AC0B24D0069188D005D1968729278D2B2E068C0B251008A1891005B189872FFF752FF226801231343236070BDC04600002F4008002F406401002059
:40090000A0002F4018040020F0B5474680B482B06B46DC1D002323706A460632137001AF3B707B70314D2860C668407A01330721B04706002B681A699046587A0123220078
:400940000021C0478619F6B22B6822781A701A699046587A012322000121C0473618F6B22B6822785A711A699046587A012322000221C0473618F6B22B6822789A711A697D
:400980009046587A012322000321C0473618F6B22B682278DA711A699046587A012322000621C0473618F6B22B6822781A721A699046587A02233A000421C0473618F6B2B6
:4009C00039782B687A7812020A435A801F69587A012322000721B847301840B22B6822781A7102B004BC9046F0BDC0466801002070B50500064C2468002C06D0E668607A17
:400A000013000A002900B04701E07F20404270BD6801002070B582B0050000226B46DA71124B1B68002B1AD01C69587A01236A4607320721A047041E14D16B46DA1D1570AB
:400A40000A4B1B68DE68587A01230721B047041960B2002808D1054B1B681D7104E07F20404201E00120404202B070BD6801002070B582B0050000226B46DA71144B1B6865
:400A8000002B1ED01B79002B03D00020FFF7C2FF01E001204042002804D00D4B1B681B79002B11D10A4B1B681E69587A6B46DC1D012322003D21B04723780F2213402B7088
:400AC00004E07F20404201E00120404202B070BD6801002070B582B0050000236A46D3716A46937106323F4B1B68002B6ED01000FFF7BEFF00286CD16B4606331B78002B60
:400B000022D1384B1B681C69587A01236A4607323D21A047041E5FD16B46DA1D11780F2399431D400D4315702E4D2B68DE68587A01233D21B047001944B22B685B69962095
:400B40008000984720004AE0264B1B681C69587A01236A4607323D21A0470600041E10D16B46D91D0B780F2293430B700E3A3D20FFF73EFF861974B21A4B1B685B691420FD
:400B80009847002D29D0174B1B681C69587A01236A4607323D21A047041E20D16B46DA1D13780F218B430D401D4315700D4D2B68DE68587A01232E31B047001944B22B680B
:400BC0005B69962080009847200008E07F20404205E00120404202E001E02000FFE702B070BDC0466801002070B582B0050000236A46D3716A4693710632234B1B68002BB9
:400C00003BD01000FFF734FF041E28D16B4606331B78002B03D0FFF75DFF041960B2002820D1194B1B681C69587A01236A4607323E21A0470600041E16D16B46DA1D13786D
:400C400003218B430D401D4315700F4B1B68DC68587A01233B31A047861974B204E00124644201E0012464426B469879002807D0FFF730FF001940B203E07F20404200E0F1
:400C8000200002B070BDC0466801002070B582B0050006220021684602F018F9294B1B68002B42D01B79002B03D00020FFF7B2FE01E001204042002804D0224B1B681B79C0
:400CC000002B35D11F4B1B681C69587A06236A465521A047041E2ED16B461A785B785BB21B0213432B806B469A78DB785BB21B0213436B806B461A795B795BB21B021343CE
:400D0000AB80104B1B681E69587A02236A466721B047041960B2002810D16B461A785B785BB21B021343EB800AE07F20404207E00120404204E00120404201E00120404224
:400D400002B070BD6801002070B582B0050000236A46D3716A46937106327F4B1B68002B00D1F2E01000FFF783FE041E00D0DEE06B4606331B78002B03D0FFF7ABFE041923
:400D800060B2002800D0D5E0734B1B681C69587A01236A4607325521A0470600041E0CD12B786A46073213706B4B1B68DC68587A01235521A047861974B2674B1B681E690D
:400DC000587A01236A4607325621B0470419E6B274B2002C0CD16B786A46073213705E4B1B68DC68587A01235621A047301844B2594B1B681E69587A01236A46073257216C
:400E0000B0470419E6B274B2002C0CD1AB786A4607321370504B1B68DC68587A01235721A047301844B24C4B1B681E69587A01236A4607325821B0470419E6B274B2002C5C
:400E40000CD1EB786A4607321370434B1B68DC68587A01235821A047301844B23E4B1B681E69587A01236A4607325921B0470419E6B274B2002C0CD12B796A460732137006
:400E8000354B1B68DC68587A01235921A047301844B2314B1B681E69587A01236A4607325A21B0470419E6B274B2002C0CD16B796A4607321370284B1B68DC68587A01231B
:400EC0005A21A047301844B2234B1B681E69587A01236A4607326721B047041964B2002C0BD1AB796A46073213701B4B1B68DC68587A01236721A0470400174B1B681E69AF
:400F0000587A01236A4607326821B047041964B2002C11D1EB796A46073213700E4B1B68DC68587A01236821A047040004E00124644201E0012464426B469879002807D09B
:400F4000FFF7C8FD001940B203E07F20404200E0200002B070BDC0466801002070B582B0050006220021684601F0B0FF294B1B68002B42D01B79002B03D00020FFF74AFD23
:400F800001E001204042002804D0224B1B681B79002B35D11F4B1B681C69587A06236A465B21A047041E2ED16B461A785B785BB21B0213432B806B469A78DB785BB21B02DA
:400FC00013436B806B461A795B795BB21B021343AB80104B1B681E69587A02236A466921B047041960B2002810D16B461A785B785BB21B021343EB800AE07F20404207E035
:401000000120404204E00120404201E00120404202B070BD6801002070B582B0050000236A46D3716A4693710632814B1B68002B00D1F6E01000FFF71BFD041E00D0E2E048
:401040006B4606331B78002B03D0FFF743FD041960B2002800D0D9E0754B1B681C69587A01236A4607325B21A0470600041E0CD12B786A46073213706D4B1B68DC68587A70
:4010800001235B21A047861974B2694B1B681E69587A01236A4607325C21B0470419E6B274B2002C0CD16B786A4607321370604B1B68DC68587A01235C21A047301844B296
:4010C0005B4B1B681E69587A01236A4607325D21B0470419E6B274B2002C0CD1AB786A4607321370524B1B68DC68587A01235D21A047301844B24E4B1B681E69587A0123E3
:401100006A4607325E21B0470419E6B274B2002C0CD1EB786A4607321370454B1B68DC68587A01235E21A047301844B2404B1B681E69587A01236A4607325F21B0470419A4
:40114000E6B274B2002C0CD12B796A4607321370374B1B68DC68587A01235F21A047301844B2334B1B681E69587A01236A4607326021B0470419E6B274B2002C0CD16B790D
:401180006A46073213702A4B1B68DC68587A01236021A047301844B2254B1B681E69587A01236A4607326921B0470419E6B274B2002C0CD1AB796A46073213701C4B1B68B3
:4011C000DC68587A01236921A047301844B2184B1B681E69587A01236A4607326A21B0470419E6B274B2002C12D1EB796A46073213700F4B1B68DC68587A01236A21A047F5
:40120000301844B204E00124644201E0012464426B469879002807D0FFF75CFC001940B203E07F20404200E0200002B070BDC0466801002010B500F057FA10BDF0B583B0DE
:4012400000AF78600C0015001E0001F029FA721C0836F608F6006B469B1B9D4669460C70012304E0E81801380078C85401339342F8DB0023786801F033FA040001F0F8F9A7
:401280008307FBD560B2BD4603B0F0BDF8B504000E0017001D0001F003FA14220021200001F0F6F81421300001F080F90A2001F051F914220121200001F0EAF8060000247F
:4012C0000FE06B1E9C4205DA39191422002001F091F904E039191422012001F08BF90134E4B2AC4201D2002EEBD0142001F032F940B2F8BD054B064ADA60064A1A61064A33
:401300005A6128225A7200207047C046280200203D1200008D1200003512000010B501F067FA43425841C0B201F056FA142000F0DBF901F05DFA43425841C0B201F04CFA91
:40134000FA20800000F0D0F900F092FFFFF7D2FF0448FFF7D9FA0020FFF746FC0C20FFF7B9FB10BD280200200323044A1360044A13600022034B1A607047C0463000304089
:4013800030003140000E3F4010B50A00002101F09DFD10BD10B501F049FD03680C2B00D1FEE7FEE770B50F4E0F4D13E029686B68AC68002202E001C901C30432A242FAD1BE
:4013C000E868002202E0002102C304328242FAD11035013E002EE9D101F02EFDFFF738F9FEE7C04601000000A033000010B50E4A136801218B43136000230AE0032B03D86F
:401400009A000A49505800E009489900094A885001332F2BF2D9FEF763FE034A116801230B43136010BDC04600001040000000009513000000000020074B1B78272B05D8C9
:40144000064B1B78DBB2064A136004E0054B1B78DBB2034A1360704702F3FF0F42F3FF0F20FF0B40C1F1FF0F00230AE0204A12683F210A401F49C95C8A4201D1033303E01E
:4014800001332D2BF2D903231B4A12781B2A16D8302B05D1194B1B78DBB2194A136006E0182B04D1174B1B78DBB2154A136016490B681F229343173A13430B6016E0302B64
:4014C00005D1124B1B78DBB20D4A136006E0182B04D10F4B1B78DBB2094A13600A4A13681F218B430B4909780B4313607047C0462CFF0B40C431000002F3FF0F3FF3FF0FB3
:4015000028FF0B403EF3FF0F34FF0B40C3F1FF0FC2F1FF0FC0F1FF0F00230AE00D4A12683F210A400C49C95C8A4201D1033303E001332D2BF2D9032308490868084A0240AF
:401540000A60084A944663441B78DBB2064A13607047C0462CFF0B40C431000000002240FFFFFFBF4DF3FF0F28FF0B40034B18688023DB05184000D0012070470000224092
:4015800010B50B4A136801218B431360094B1A68094B1A60094A12685A60FFF765FFFFF74BFF074A116802230B43136010BDC04650000C4034FF0B406C01002020FF0B40DA
:4015C00024002C4030B500230AE0134A12683F210A401249C95C8A4201D1033303E001332D2BF2D903230E490A68022082430A600C4C21681F2291430B4805682A400A43AD
:4016000022604168094A1160094A944663441B78DBB2084A136030BD2CFF0B40C431000024002C4034FF0B406C01002020FF0B404DF3FF0F28FF0B40034B1B68022018409A
:4016400000D001207047C04624002C401F2318401E3B8340014A13607047C04600E100E01F2318401E3B8340014A13607047C04680E100E001BE704770B504000D001F28D5
:4016800002D90020FFF7F6FF1034A40080239B059C4664442068256070BDC04670B504000E00032902D90020FFF7E4FF1F2C02D90020FFF7DFFF03252540ED00063501F058
:4016C00040F9A408A400074B9C46644421680323AB4099430B003100A9401943216001F034F970BD00E400E010B5040006E0084B586801F01DF9074B9C46644480231B0299
:401700009C42F4D8024B9868604301F011F910BDC40000200080FFFF70B582B000F090F9002862D001F00DF90500314A116801230B43136000230AE02E4A12683F210A403D
:401740002D49C95C8A4201D1033303E001332D2BF2D903230021294A1160294A1268D20606D1274802681F318A4313390A430260244C2168244A1140244A5A438023DB01C6
:401780009C466244D20B013A5205520D0B001343A0225203134323601D4B1B680193302001F0D6F81B4A13688021C9050B4313602668194B1E40002407E00120FFF794FFDF
:4017C0001034A30533430F4A1360EE2CF5D90120FFF78AFFFF239B051E430A4B1E60019A0B4B1A60280001F0B0F802B070BDC04650000C402CFF0B40C431000028FF0B40B3
:4018000034FF0B400800224000F800C040420F003000104000002240FFFF3FC010B5034B1B7B584301F084F810BDC046C4000020F0B55F4656464D464446F0B483B0040052
:4018400001F07FF80190FFF791FE002804D0FFF763FE01239A4601E000239A46FFF7ECFE002808D0182C01D0302C07D1FFF7AAFE01239B4604E000239B4601E000239B4616
:40188000E61E2D2E74D8464B1B78DBB29C4208D8444B1B78DBB29946434B1B78DBB2984631E0424B1B78DBB29C4208D8404B1B78DBB299463F4B1B78DBB2984623E03E4BDA
:4018C0001B78DBB29C4208D83C4B1B78DBB299463B4B1B78DBB2984615E03A4B1B78DBB29C4208D8384B1B78DBB29946374B1B78DBB2984607E0364B1B78DBB29946354BBF
:401900001B78DBB29846344B9F5D2F2F09D92A2C07D91922314B1A60052001F009F8192503E02E4B1D683F231D40BD4206D92A4B9A5D2A4B1A60052000F0FAFF254B9C46F9
:4019400064442378DBB2264A1360264B4A461A60254B42461A600520FFF760FFBD420AD21D4B9A5D1D4B1A60052000F0E1FF02E00020FFF77FFE5346012B01D1FFF7CCFE70
:401980005B46012B01D1FFF7FBFD019800F0DDFF03B03CBC90469946A246AB46F0BDC04640F3FF0F41F3FF0F42F3FF0F43F3FF0F44F3FF0F45F3FF0F46F3FF0F47F3FF0F25
:4019C00048F3FF0F49F3FF0F4AF3FF0F4BF3FF0F4CF3FF0F4DF3FF0FC43100002CFF0B4028FF0B401CFF0B4020FF0B40034B1868C0231B02184000D00120704700010B405B
:401A000010B50D4B1A6801218A431A601A68022082431A60094A10683024A043203C204310601068093CA043014311601A68802109060A431A6010BD00002240000F22409C
:401A4000034B1B68002B01DA012000E0002070470000224010B500F074FF044A1368C02109020B43136000F070FF10BD00010B4010B500F066FF08490A68084B1A40802411
:401A8000E40122430A600A6813408022120213430B6000F05AFF10BD00010B40FF3FFFFF70B5050000F04DFF0400FFF79FFF002803D0FFF7DDFF012100E0002108482840F2
:401AC000084A1568084B2B40184310601368012901D1FFF7BFFF200000F037FF70BDC0460404040010020B40FBFBFBFF10B5244B1B685B0715D5234B5B685B070ED5224BAB
:401B0000596A042001401F4C62688A4362605A6A82435A629B69002B00D098470420FFF7BFFF174B1B685B0518D5164B5B685B0510D5154B596A8022D20011401148426838
:401B40008A434260596A114A0A405A62DB69002B00D098478020C000FFF7A2FF084B1B685B030CD5074B5B685B0304D5064B1B6A002B00D098478020C002FFF791FF10BDF7
:401B800010020B40D80000208C010020FFFBFFFF10B50A20FFF75AFD10BDC04610B500F093F810BD10B500F02DF810BD10B5054A1368802109060B431360FFF7E9FFFFF794
:401BC000EDFF10BD0000254010B5064B1B78002B04D1FFF7E7FF0122024B1A70FFF7E6FF10BDC046B4010020044B1B681F221340082BF9D0024B18607047C0460802254072
:401C00004002254010B51B4A1B4B1A6000241B4B1C601B4A1B4B1A601B4B1C4A136007211B4A11601B4A146006391B4A11601B4A13601B4B1C6004221A4B1A600A20FFF79E
:401C40000FFD03210A20FFF729FD17490A20FFF713FD164B1C60164B1C60164B1C60164B1C60164B1C60164B1C601A68154B1A8010BDC0460B0000020000254040002540CA
:401C800001000A00480025400700008000032540040325401003254044002540000225400402254050002540A5290000880E2540C80E2540480F2540080F2540C80F2540F1
:401CC000880F2540BC01002005490B68F0229343603A13430B60034B1A88034B1A60704700020240BC010020880F254070B50500002402E0FFF778FF0134285D0028F9D132
:401D000070BDC046044B1B68002BFBDB0002034B1843014B18607047000001404100008010B5064A13680724234000021843CB00FF2119400143116010BDC04604030140E6
:401D4000054B1A6801210A431A601B68194201D1012000E00020704704002F4010B50E4A0E4B1A60FFF7ECFF1D20FFF76FFC0C4A116801230B43136090235B0100E0013B5F
:401D8000002B03D0064A1268D207F8D5002B01D1012000E0002010BD0110000000002F4010002F4003B2002B0DDB094A1168094B0B400004034313601268074B13409842E2
:401DC00003D0012002E0022000E000207047C04614002F40FFFF00800000FF7F002809D10C4B19680C4A0A401A601B68DB040CD501300DE0074B1A68802149010A431A60D4
:401E00001B680B4203D1012002E0002000E000207047C04614002F40FFEFFFFF70B5841EE4B20D2C35D88C1EE4B2052C03D9002B31D1012931D1032A31D8904231D3914287
:401E400031D31C4D2C68240AE4B20F26B44320432E68194C3440000204432C602C686040F0242401204220D1002B00D002234901C9B29200D2B2114319430E4A1368EE207E
:401E800083430B4313601368034099420FD0ED380EE002200CE002200AE0022008E0022006E0022004E0022002E0012000E0002070BDC04614002F40FFF0FFFF002809D114
:401EC0000B4B1A6810218A431A601B6819420BD001300CE0064B1A6810210A431A601B68194203D1012002E0002000E00020704714002F40002809D10B4B1A6801218A4319
:401F00001A601B6819420BD001300CE0064B1A6801210A431A601B68194203D1012002E0002000E00020704714002F40054B18601B681B041B0C984201D0012000E0002029
:401F40007047C04604002F4010B503785B01204A944663441F4A41680A431A6003785B01634419681C4A11401C4A44682240914224D182681A6103785B0163441A69816890
:401F80008A421DD1C2685A6103785B0163445A69C1688A4216D1012252429A6103785B0163449A6901320FD10022DA6103785B016344DB69002B09D0012008E0012006E0EC
:401FC000012004E0012002E0012000E0002010BDA0002F40800080007F007F007FFF7FFF10B503781B01104A944663440F4A41680A431A6003781B01634419680C4A11407C
:402000000C4A4468224091420AD182685A6003781B0163445A6883689A4203D0012002E0012000E0002010BD20002F4008008000F7007F00F7FF7FFF70B500240AE06300C8
:402040001B199800104B1818FFF7CAFF002805D10134E4B2072CF2D9002500E00125002D0BD00FE0230108486030C018FFF76CFF002806D10134E4B200E000240F2CF1D951
:4020800000E00125280070BDF4310000002809D10C4B19680C4A0A401A601B689B040CD501300DE0074B1A68802189010A431A601B680B4203D1012002E0002000E00020FE
:4020C0007047C04614002F40FFDFFFFF10B580221206334B1A60334A136801218B431360F0231B0200E0013B002B03D02D4A1268D207F8D4002B49D01D20FFF7B1FA2A497D
:402100001D20FFF7B9FA03211D20FFF7C7FA1720FFF748FE002819D1FFF760FE002817D1FFF7B4FF002815D10023012201210C30FFF774FE00280FD1FFF7C0FE00280DD133
:40214000FFF7D8FE00280BD001230AE0012308E0012306E0012304E0012302E0012300E00023002B14D1FFF767FF002812D10F48FFF7DCFE00280FD10A4B1A6807218A43C5
:402180001A601B68194209D0013008E0012006E0012004E0012002E0012000E0002010BD00042F4010002F40D92100000110000010B5084B1B78002B02D1FFF787FF00E0D6
:4021C0000020002804D10122024B1A70FFF7C6FD10BDC046BE0100207047C046024B1B68012018407047C04604010440024B1868400801231840704704010440024B1868F3
:40220000800801231840704704010440024B1868C0080123184070470401044004490A68D2B202239A434000184010430860704700040440024B18684008012318407047AA
:402240000404044010B50B20FFF700FA10BDC04610B500F01DF810BD10B5044A1368802109060B431360FFF7EDFF10BD0000264010B5064B1B78002B04D1FFF7E9FF01220A
:40228000024B1A70FFF7E8FF10BDC046C001002010B50024184B1C60184A194B1A60194B194A1360194A1460194A1460194A1360194B1C600B20FFF7D3F903210B20FFF7DE
:4022C000EDF916490B20FFF7D7F9154B1C60154B1C60154B1C60154B1C60154B1C60154B1C601022144B1A70144B1C80144B1C60144B1C6010BDC04600002640770800807C
:4023000060002640070100800003264004032640100326400002264004022640B9290000C80E2640880E2640480F2640080F2640C80F2640880F2640D8040020E40400209A
:40234000E8040020FC04002010B50E4A13685B005B08136000230C490B600C490B600C4804680C49214001600B490B600B490B6010210B4B19701368802109060B43136074
:4023800010BDC04600002640680026406C00264060002640FF5CFFFF880F2640C80F2640D804002010B504000368002B09D00120FFF734FA2368013B2360002B03D000200A
:4023C00003E0002001E08020000610BD10B5002839DBC023034208D00022284B1A601032274B1A70002310243DE0C3070FD5244B1B781B072BD5234B1B685B0001D50023AD
:4024000000E0012310211E4A117001242BE0C30520D4830722D4C30605D51022184B1A70002300241FE0164B1B781B0719D5144B1B78DB0701D5252200E02422104B1A700A
:40244000002300240FE00123802424060BE00123012408E001238024640004E00023022401E000230024012B02D1FFF76DFF02E0054A064B1A60200010BDC0466800264079
:40248000D80400206000264017030000000F264070B582B004000D001600244B1B78102B40D10B20FFF7DCF8214B1B68DB0734D4FA239B005E43019600221E4B1A601E4AD4
:4024C0001E4B1A601E4A1F4B1A606400FF231C40002D03D12422154B1A7004E02522134B1A7001231C43184B1C600222174B1A60124B1C680823FF3320001840144B1B688D
:40250000C02423401843040001A8FFF74BFF2043EED0FFF75BFF040000E008240B20FFF795F800E00424200002B070BDD804002064002640080F264017030000000F264004
:40254000ED0F0000C00F26404002264068002640400F264010B582B0104B1B789B061AD5FA239B00584301900D4B1B689B0601D5182200E010220B4B1A600B4B186812232D
:40258000FF331840040001A8FFF70CFF2043F4D0FFF71CFF00E0042002B010BDD80400206400264068002640000F264010B582B00D4B1B789B0613D5FA239B0059430191CE
:4025C0000A4B18600A4B18680823FF331840040001A8FFF7E7FE2043F4D0FFF7F7FE00E0042002B010BDC046D804002040022640000F2640F0B583B004000D00164B1B786B
:402600009B0626D5FA239B005A430192134B18680223FF3318400700114B1B6804261E4001A8FFF7BFFE384333000343EED0002E05D00C4B1B682B700B4A094B1A60FFF77C
:40264000C5FE002806D1002C04D10422074B1A6000E0042003B0F0BDD8040020000F2640C00F264040032640ED0F00006800264010B50B20FEF7F4FF074B1C88A2B21400F2
:40268000064B1B789B0602D504231A4394B20B20FEF7DCFF200010BDE4040020D804002010B50B20FEF7DCFF044B1C88A4B200221A800B20FEF7CAFF200010BDE404002065
:4026C000054B1B682022134000D0082301221343024A13607047C0466400264068002640F0B583B001900C0017001D00002917D02A4B1B78102B08D10B20FEF7B1FF284BD2
:402700001B68DB070ED508260FE0244B1B78602B0AD1244A138808218B431380002604E0042602E0002600E00426002E2FD128221A4B1A7000231C4A13601C4A13601C4B50
:402740001F601C4B1C60EAB21B4B1A70019B5C00FF231C40134A138802218B4313804023164A13601649174A11601421FF31164A1160164A1360EB0704D5FFF7A1FF144B49
:402780001C6004E0124B1C600222124B1A600B20FEF75CFF300003B0F0BDC046D804002064002640E4040020EC040020FC040020F4040020F8040020DC040020800F2640AD
:4027C00017030000000F2640080F2640880F2640400226406800264004490A687F231A40C301D8B2104308607047C04600020440024B1868C0090123184070470402044080
:4028000010B500F075F810BD10B500F01DF810BD10B5044A1368802109060B431360FFF7EFFF10BD0000274010B5064B1B78002B04D1FFF7E9FF0122024B1A70FFF7E8FF9D
:4028400010BDC046C8010020154A164B1A600023154A13601549164A1160164A16490A6007201649086016490B6006381549086015490A60154A13600421154A1160154A6B
:402880001360154A1360154A1360154A1360154A1360154A13601268144B1A807047C0460B000002000027404000274001000A004800274007000080000327400403274027
:4028C0001003274044002740000227400402274050002740880E2740C80E2740480F2740080F2740C80F2740880F2740CA01002005490B68F0229343603A13430B60034B37
:402900001A88034B1A60704700070240CA010020880F274070B50500002402E000F0ECF90134285D0028F9D170BDC046000000000230800803D00138FDD1C046C046C046BA
:402940007047EFF3108072B6704780F31088704770B50400FFF7F5FF0500102C05D8104A136803218B43136016E0202C07D80C490B6803229343023A13430B600CE0302CF9
:4029800007D807490B6803229343013A13430B6002E00020FEF76EFE2800FFF7D6FF70BD3000104010B5034B1B68002B00D0984710BDC046B801002010B5AF4B1B68002BF2
:4029C00000D09847AD4B1B68DB0702D50022AC4B1A60AC4B1B789B0628D5AB4B1B68DB0507D5AA4A1188C0239B000B431380012300E00023A44A1268D20706D5A34A11884F
:402A000090239B000B4313800123002B0FD09D4A1278D20701D5012200E002229B49088802430A800021974A117000E00023954A1278920600D417E1934A1268D20611D547
:402A40001022934B1A608F4B1B78DB0701D5012300E002238D4A11880B4313801022894B1A7007E1874A1278120720D5864A126892070AD50222864B1A60844A1188882309
:402A80009B000B431380012311E07E4A1278D20703D525217B4A117009E02421794A11707C4A1268002A02D014397B4A1160754A1278520700D4AEE0724A1278D20749D584
:402AC000764A1268120727D5754A1268754909681F240C40744909686418141B082C09D8002C16D1714A1168714B0B401360012308340EE008240CE06B4A11686D48006830
:402B000041186D480068C0B20870116801311160013C002CF0D119E0604A1268520715D5614A116863480068411863480068C0B208701168013111601168594A126891427D
:402B400003D204215D4A116000E001235C495D4A116060E04C4A1268920726D502224C4B1A6059490B681D321A40096880231B020B4000D001239B18544A1168CB1A136019
:402B80001268534B1A60414A118884239B000B431380504B1A68802149020A431A6019684D4A0A401A60012335E04C4A1268D2061ED427E0454A1168364A126891421DD2B2
:402BC000344A1268013A414909688A4204D1402243490A6030490A603C4A11684148006841180978C9B240480160116801311160354A12681F210A40082ADBD11021384A6D
:402C0000116008E0354A1268520604D52F4B1A682F4B1A600123002B2CD0244A1168244B0B4013600023314A13601B4A1360304B1B789B070ED5134B1B78DB0701D5092371
:402C400000E00A23114A11880B43138060220D4B1A700FE0274B1B689B0601D5182200E01022164B1A6005E0064B1B78DB0601D4FFF76AFB10BDC046C40100208C0E2640FA
:402C8000880E2640D80400200C0F2640E4040020000F2640F4040020880F2640CC0F2640F004002008032640E804002060002640FFFEFFFFE00400204003264068002640FB
:402CC000ED0F0000C00F264008022640EC040020FC04002004022640FFFFFEFF8C0F2640800F2640F804002040022640C80F2640DC04002064002640044B1B681F22134075
:402D0000082BF9D0024B18607047C0460802274040022740002243088B4274D303098B425FD3030A8B4244D3030B8B4228D3030C8B420DD3FF22090212BA030C8B4202D343
:402D40001212090265D0030B8B4219D300E0090AC30B8B4201D3CB03C01A5241830B8B4201D38B03C01A5241430B8B4201D34B03C01A5241030B8B4201D30B03C01A52418D
:402D8000C30A8B4201D3CB02C01A5241830A8B4201D38B02C01A5241430A8B4201D34B02C01A5241030A8B4201D30B02C01A5241CDD2C3098B4201D3CB01C01A52418309A2
:402DC0008B4201D38B01C01A524143098B4201D34B01C01A524103098B4201D30B01C01A5241C3088B4201D3CB00C01A524183088B4201D38B00C01A524143088B4201D3B9
:402E00004B00C01A5241411A00D20146524110467047FFE701B5002000F006F802BDC0460029F7D076E770477047C046014B18687047C046400100200E4B70B500251E00EB
:402E40000D4CE41AA410A54204D0AB00F35898470135F8E700F092FA084B00251E00084CE41AA410A54204D0AB00F35898470135F8E770BD88330000883300008833000087
:402E800090330000931E10B50C00222B02D9002008700DE00A2A06D1002804DA2D2340420B70012100E00021611800F017F8200010BD10B5FFF7E6FF10BD002310B59A4209
:402EC00003D0CC5CC4540133F9E710BD03008218934202D019700133FAE77047F0B58FB0170006000C002522184904A8FFF7E5FF0020BB1E0500222B01D9207023E06B1CCB
:402F00000293E31801933000013B39000393FFF787FF04AB5B5C039A300013703900FFF7F9FE061E01D0029DE9E7019B187023001A1B954206DD1A78615D1970625501337C
:402F4000013DF5E720000FB0F0BDC046563300000000000043616E6E6F742053656E64205468617420446174612054797065210A0D0000004F7065726174696F6E204D6F3D
:402F800064653A20000000000D0A0D0A0000000057726974696E67204F7065726174696F6E204D6F64650D0A0D0A000043616C6962537461743A2000416363656C65726157
:402FC00074696F6E204F66667365740D0A00000058204F66667365743A2000002C2059204F66667365743A20000000002C205A204F66667365743A20000000004D61676EB0
:4030000065746F6D65746572204F66667365740D0A0000004779726F204F66667365740D0A000000526164697573204F66667365740D0A004163634F66667365743A200080
:403040002C204D61674F66667365743A2000000057726974696E6720416363656C65726174696F6E204F66667365740D0A0D0A0057726974696E67204D6167204F666673E4
:4030800065740D0A0D0A000057726974696E67204779726F204F66667365740D0A0D0A0057726974696E6720526164697573204F66667365740D0A0D0A0000004163632067
:4030C0004F66667365740D0A000000002C2052204F66667365743A20000000004D6167204F66667365740D0A000000000D0A2A2A2A2A2A2A2A2A2A2A2A2A2A2A2A0D0A4933
:403100004D5520424F41524420494E495449414C495A45440A0D2A2A2A2A2A2A2A2A2A2A2A2A2A2A2A0D0A0024504D544B3130312A33323C43523E3C4C463E0024504D54BA
:403140004B3232302C3130302A31463C43523E3C4C463E0024504D544B3331342C302C302C302C312C302C302C302C302C302C302C302C302C302C302C302C302C302C3086
:403180002C302A32393C43523E3C4C463E00000024504D544B3235312C35373630302A32433C43523E3C4C463E00000024475047474100002C00000000300F4000080040A6
:4031C0000F400008030405060708090A0B0C0E0F101112131415161718191B1C1D1E1F2021222325262728292A2B2E2F3031323334350000000000000800880000000000F8
:4032000001000000080088000000000002000000080088000000000003000000080088000000000004000000080088000000000005000000080088000000000006000000A9
:40324000080088000000000007000000080088000000000000000000A8008000FFFFFFFF0000000001000000A8008000FFFFFFFF0000000002000000A8008000FFFFFFFFB8
:403280000000000003000000A8008000FFFFFFFF000000000400000000000000000000000000000005000000000000000000000000000000060000000000000000000000D8
:4032C000000000000700000000000000000000000000000008000000000000000000000000000000090000000000000000000000000000000A0000000000000000000000AC
:40330000000000000B0000000000000000000000000000000C0000000000000000000000000000000D0000000000000000000000000000000E00000000000000000000005B
:40334000000000000F0000000000000000000000000000004300303132333435363738396162636465666768696A6B6C6D6E6F707172737475767778797A0000F8B5C0461C
:40338000F8BC08BC9E46704755020000ED130000F8B5C046F8BC08BC9E4670472D020000B0330000C000002088000000B803000000000000010000000000C05D80BB00004F
:4033C00030000000006CDC02F000000004040400000000000000000000000000000000000000000000000000000000000000000054330000000000000000000000000000D0
:40340000000000000000000000000000000000000000000000000000000000000000000000000000000000000000000000000000E00000200000000000000000000000008C
:40344000000000000000000000000000000000000000000000000000000000000000000000000000000000000000000000000000000000000000000000000000000000004C
:40348000000000000000000000000000000000000000000000000000000000000000000000000000000000000000000000000000000000000000000000000000000000000C
:4034C00000000000000000000000000000000000000000000000000000000000000000000000000000000000000000000000000000000000000000000000000000000000CC
:40350000000000000000000000000000000000000000000000000000000000000000000000000000000000000000000000000000000000000000000000000000000000008B
:020000040003F7
:0200000490303A
:0200000010648A
:0200000490402A
:4000000000000000000000000000000000000000000000000000000000000000000000000000000000000000000000000000000000000000000000000000000000000000C0
:400040000000000000000000000000000000000000000000000000000000000000000000000000000000000000000000000000000000000000000000000000000000000080
:0200000490501A
:0C0000000002101111A0000110212204C8
:0200000490600A
:0100000001FE
:00000001FF